{
  "_format": "hh-sol-artifact-1",
  "contractName": "GateKeeper",
  "sourceName": "contracts/GateKeeper.sol",
  "abi": [
    {
      "inputs": [],
      "stateMutability": "nonpayable",
      "type": "constructor"
    },
    {
      "anonymous": false,
      "inputs": [
        {
          "indexed": true,
          "internalType": "address",
          "name": "owner",
          "type": "address"
        },
        {
          "indexed": true,
          "internalType": "address",
          "name": "approved",
          "type": "address"
        },
        {
          "indexed": true,
          "internalType": "uint256",
          "name": "tokenId",
          "type": "uint256"
        }
      ],
      "name": "Approval",
      "type": "event"
    },
    {
      "anonymous": false,
      "inputs": [
        {
          "indexed": true,
          "internalType": "address",
          "name": "owner",
          "type": "address"
        },
        {
          "indexed": true,
          "internalType": "address",
          "name": "operator",
          "type": "address"
        },
        {
          "indexed": false,
          "internalType": "bool",
          "name": "approved",
          "type": "bool"
        }
      ],
      "name": "ApprovalForAll",
      "type": "event"
    },
    {
      "anonymous": false,
      "inputs": [
        {
          "indexed": false,
          "internalType": "address",
          "name": "sender",
          "type": "address"
        },
        {
          "indexed": false,
          "internalType": "uint256",
          "name": "tokenId",
          "type": "uint256"
        },
        {
          "indexed": false,
          "internalType": "string",
          "name": "productId",
          "type": "string"
        }
      ],
      "name": "LicenseMinted",
      "type": "event"
    },
    {
      "anonymous": false,
      "inputs": [
        {
          "indexed": true,
          "internalType": "address",
          "name": "from",
          "type": "address"
        },
        {
          "indexed": true,
          "internalType": "address",
          "name": "to",
          "type": "address"
        },
        {
          "indexed": true,
          "internalType": "uint256",
          "name": "tokenId",
          "type": "uint256"
        }
      ],
      "name": "Transfer",
      "type": "event"
    },
    {
      "inputs": [
        {
          "internalType": "address",
          "name": "to",
          "type": "address"
        },
        {
          "internalType": "uint256",
          "name": "tokenId",
          "type": "uint256"
        }
      ],
      "name": "approve",
      "outputs": [],
      "stateMutability": "nonpayable",
      "type": "function"
    },
    {
      "inputs": [
        {
          "internalType": "address",
          "name": "owner",
          "type": "address"
        }
      ],
      "name": "balanceOf",
      "outputs": [
        {
          "internalType": "uint256",
          "name": "",
          "type": "uint256"
        }
      ],
      "stateMutability": "view",
      "type": "function"
    },
    {
      "inputs": [
        {
          "internalType": "uint256",
          "name": "tokenId",
          "type": "uint256"
        }
      ],
      "name": "getApproved",
      "outputs": [
        {
          "internalType": "address",
          "name": "",
          "type": "address"
        }
      ],
      "stateMutability": "view",
      "type": "function"
    },
    {
      "inputs": [],
      "name": "getUserLicenses",
      "outputs": [
        {
          "components": [
            {
              "internalType": "string",
              "name": "token",
              "type": "string"
            },
            {
              "components": [
                {
                  "internalType": "string",
                  "name": "productID",
                  "type": "string"
                },
                {
                  "internalType": "string",
                  "name": "productLicenseKey",
                  "type": "string"
                },
                {
                  "internalType": "string",
                  "name": "meta",
                  "type": "string"
                }
              ],
              "internalType": "struct GateKeeper.LicenseAttributes",
              "name": "licenseAttributes",
              "type": "tuple"
            }
          ],
          "internalType": "struct GateKeeper.LicenseAttributesByToken[]",
          "name": "",
          "type": "tuple[]"
        }
      ],
      "stateMutability": "view",
      "type": "function"
    },
    {
      "inputs": [
        {
          "internalType": "address",
          "name": "owner",
          "type": "address"
        },
        {
          "internalType": "address",
          "name": "operator",
          "type": "address"
        }
      ],
      "name": "isApprovedForAll",
      "outputs": [
        {
          "internalType": "bool",
          "name": "",
          "type": "bool"
        }
      ],
      "stateMutability": "view",
      "type": "function"
    },
    {
      "inputs": [
        {
          "internalType": "string",
          "name": "_productId",
          "type": "string"
        },
        {
          "internalType": "string",
          "name": "_licenseKey",
          "type": "string"
        },
        {
          "internalType": "string",
          "name": "_meta",
          "type": "string"
        }
      ],
      "name": "mintLicenseNFT",
      "outputs": [],
      "stateMutability": "nonpayable",
      "type": "function"
    },
    {
      "inputs": [],
      "name": "name",
      "outputs": [
        {
          "internalType": "string",
          "name": "",
          "type": "string"
        }
      ],
      "stateMutability": "view",
      "type": "function"
    },
    {
      "inputs": [
        {
          "internalType": "uint256",
          "name": "",
          "type": "uint256"
        }
      ],
      "name": "nftHolderAttributes",
      "outputs": [
        {
          "internalType": "string",
          "name": "productID",
          "type": "string"
        },
        {
          "internalType": "string",
          "name": "productLicenseKey",
          "type": "string"
        },
        {
          "internalType": "string",
          "name": "meta",
          "type": "string"
        }
      ],
      "stateMutability": "view",
      "type": "function"
    },
    {
      "inputs": [
        {
          "internalType": "address",
          "name": "",
          "type": "address"
        },
        {
          "internalType": "uint256",
          "name": "",
          "type": "uint256"
        }
      ],
      "name": "nftHolders",
      "outputs": [
        {
          "internalType": "uint256",
          "name": "",
          "type": "uint256"
        }
      ],
      "stateMutability": "view",
      "type": "function"
    },
    {
      "inputs": [
        {
          "internalType": "uint256",
          "name": "tokenId",
          "type": "uint256"
        }
      ],
      "name": "ownerOf",
      "outputs": [
        {
          "internalType": "address",
          "name": "",
          "type": "address"
        }
      ],
      "stateMutability": "view",
      "type": "function"
    },
    {
      "inputs": [
        {
          "internalType": "address",
          "name": "from",
          "type": "address"
        },
        {
          "internalType": "address",
          "name": "to",
          "type": "address"
        },
        {
          "internalType": "uint256",
          "name": "tokenId",
          "type": "uint256"
        }
      ],
      "name": "safeTransferFrom",
      "outputs": [],
      "stateMutability": "nonpayable",
      "type": "function"
    },
    {
      "inputs": [
        {
          "internalType": "address",
          "name": "from",
          "type": "address"
        },
        {
          "internalType": "address",
          "name": "to",
          "type": "address"
        },
        {
          "internalType": "uint256",
          "name": "tokenId",
          "type": "uint256"
        },
        {
          "internalType": "bytes",
          "name": "data",
          "type": "bytes"
        }
      ],
      "name": "safeTransferFrom",
      "outputs": [],
      "stateMutability": "nonpayable",
      "type": "function"
    },
    {
      "inputs": [
        {
          "internalType": "address",
          "name": "operator",
          "type": "address"
        },
        {
          "internalType": "bool",
          "name": "approved",
          "type": "bool"
        }
      ],
      "name": "setApprovalForAll",
      "outputs": [],
      "stateMutability": "nonpayable",
      "type": "function"
    },
    {
      "inputs": [
        {
          "internalType": "bytes4",
          "name": "interfaceId",
          "type": "bytes4"
        }
      ],
      "name": "supportsInterface",
      "outputs": [
        {
          "internalType": "bool",
          "name": "",
          "type": "bool"
        }
      ],
      "stateMutability": "view",
      "type": "function"
    },
    {
      "inputs": [],
      "name": "symbol",
      "outputs": [
        {
          "internalType": "string",
          "name": "",
          "type": "string"
        }
      ],
      "stateMutability": "view",
      "type": "function"
    },
    {
      "inputs": [
        {
          "internalType": "uint256",
          "name": "tokenId",
          "type": "uint256"
        }
      ],
      "name": "tokenURI",
      "outputs": [
        {
          "internalType": "string",
          "name": "",
          "type": "string"
        }
      ],
      "stateMutability": "view",
      "type": "function"
    },
    {
      "inputs": [
        {
          "internalType": "address",
          "name": "from",
          "type": "address"
        },
        {
          "internalType": "address",
          "name": "to",
          "type": "address"
        },
        {
          "internalType": "uint256",
          "name": "tokenId",
          "type": "uint256"
        }
      ],
      "name": "transferFrom",
      "outputs": [],
      "stateMutability": "nonpayable",
      "type": "function"
    }
  ],
  "bytecode": "0x60806040523480156200001157600080fd5b506040518060400160405280600a81526020017f476174654b6565706572000000000000000000000000000000000000000000008152506040518060400160405280600781526020017f4c6963656e736500000000000000000000000000000000000000000000000000815250816000908051906020019062000096929190620000e5565b508060019080519060200190620000af929190620000e5565b505050620000c96008620000cf60201b620012451760201c565b620001fa565b6001816000016000828254019250508190555050565b828054620000f39062000195565b90600052602060002090601f01602090048101928262000117576000855562000163565b82601f106200013257805160ff191683800117855562000163565b8280016001018555821562000163579182015b828111156200016257825182559160200191906001019062000145565b5b50905062000172919062000176565b5090565b5b808211156200019157600081600090555060010162000177565b5090565b60006002820490506001821680620001ae57607f821691505b60208210811415620001c557620001c4620001cb565b5b50919050565b7f4e487b7100000000000000000000000000000000000000000000000000000000600052602260045260246000fd5b61359c806200020a6000396000f3fe608060405234801561001057600080fd5b506004361061010b5760003560e01c80636352211e116100a257806398da4c951161007157806398da4c95146102ca578063a22cb465146102fc578063b88d4fde14610318578063c87b56dd14610334578063e985e9c5146103645761010b565b80636352211e1461021c57806370a082311461024c578063775bb50e1461027c57806395d89b41146102ac5761010b565b806323b872dd116100de57806323b872dd146101aa57806331c91735146101c657806334c08a2e146101e457806342842e0e146102005761010b565b806301ffc9a71461011057806306fdde0314610140578063081812fc1461015e578063095ea7b31461018e575b600080fd5b61012a6004803603810190610125919061254c565b610394565b6040516101379190612afe565b60405180910390f35b610148610476565b6040516101559190612b19565b60405180910390f35b61017860048036038101906101739190612635565b610508565b6040516101859190612a37565b60405180910390f35b6101a860048036038101906101a39190612510565b61054e565b005b6101c460048036038101906101bf919061240a565b610666565b005b6101ce6106c6565b6040516101db9190612adc565b60405180910390f35b6101fe60048036038101906101f9919061259e565b610b4e565b005b61021a6004803603810190610215919061240a565b610cc2565b005b61023660048036038101906102319190612635565b610ce2565b6040516102439190612a37565b60405180910390f35b610266600480360381019061026191906123a5565b610d94565b6040516102739190612d2c565b60405180910390f35b61029660048036038101906102919190612510565b610e4c565b6040516102a39190612d2c565b60405180910390f35b6102b4610e7d565b6040516102c19190612b19565b60405180910390f35b6102e460048036038101906102df9190612635565b610f0f565b6040516102f393929190612b3b565b60405180910390f35b610316600480360381019061031191906124d4565b6110d1565b005b610332600480360381019061032d9190612459565b6110e7565b005b61034e60048036038101906103499190612635565b611149565b60405161035b9190612b19565b60405180910390f35b61037e600480360381019061037991906123ce565b6111b1565b60405161038b9190612afe565b60405180910390f35b60007f80ac58cd000000000000000000000000000000000000000000000000000000007bffffffffffffffffffffffffffffffffffffffffffffffffffffffff1916827bffffffffffffffffffffffffffffffffffffffffffffffffffffffff1916148061045f57507f5b5e139f000000000000000000000000000000000000000000000000000000007bffffffffffffffffffffffffffffffffffffffffffffffffffffffff1916827bffffffffffffffffffffffffffffffffffffffffffffffffffffffff1916145b8061046f575061046e8261125b565b5b9050919050565b6060600080546104859061306a565b80601f01602080910402602001604051908101604052809291908181526020018280546104b19061306a565b80156104fe5780601f106104d3576101008083540402835291602001916104fe565b820191906000526020600020905b8154815290600101906020018083116104e157829003601f168201915b5050505050905090565b6000610513826112c5565b6004600083815260200190815260200160002060009054906101000a900473ffffffffffffffffffffffffffffffffffffffff169050919050565b600061055982610ce2565b90508073ffffffffffffffffffffffffffffffffffffffff168373ffffffffffffffffffffffffffffffffffffffff1614156105ca576040517f08c379a00000000000000000000000000000000000000000000000000000000081526004016105c190612cec565b60405180910390fd5b8073ffffffffffffffffffffffffffffffffffffffff166105e9611310565b73ffffffffffffffffffffffffffffffffffffffff161480610618575061061781610612611310565b6111b1565b5b610657576040517f08c379a000000000000000000000000000000000000000000000000000000000815260040161064e90612c8c565b60405180910390fd5b6106618383611318565b505050565b610677610671611310565b826113d1565b6106b6576040517f08c379a00000000000000000000000000000000000000000000000000000000081526004016106ad90612d0c565b60405180910390fd5b6106c1838383611466565b505050565b60606000600760003373ffffffffffffffffffffffffffffffffffffffff1673ffffffffffffffffffffffffffffffffffffffff16815260200190815260200160002080548060200260200160405190810160405280929190818152602001828054801561075357602002820191906000526020600020905b81548152602001906001019080831161073f575b50505050509050600081511115610ac7576000815167ffffffffffffffff8111156107a7577f4e487b7100000000000000000000000000000000000000000000000000000000600052604160045260246000fd5b6040519080825280602002602001820160405280156107e057816020015b6107cd612188565b8152602001906001900390816107c55790505b50905060005b8251811015610abc57600083828151811061082a577f4e487b7100000000000000000000000000000000000000000000000000000000600052603260045260246000fd5b60200260200101519050604051806040016040528061088886858151811061087b577f4e487b7100000000000000000000000000000000000000000000000000000000600052603260045260246000fd5b60200260200101516116cd565b8152602001600660008481526020019081526020016000206040518060600160405290816000820180546108bb9061306a565b80601f01602080910402602001604051908101604052809291908181526020018280546108e79061306a565b80156109345780601f1061090957610100808354040283529160200191610934565b820191906000526020600020905b81548152906001019060200180831161091757829003601f168201915b5050505050815260200160018201805461094d9061306a565b80601f01602080910402602001604051908101604052809291908181526020018280546109799061306a565b80156109c65780601f1061099b576101008083540402835291602001916109c6565b820191906000526020600020905b8154815290600101906020018083116109a957829003601f168201915b505050505081526020016002820180546109df9061306a565b80601f0160208091040260200160405190810160405280929190818152602001828054610a0b9061306a565b8015610a585780601f10610a2d57610100808354040283529160200191610a58565b820191906000526020600020905b815481529060010190602001808311610a3b57829003601f168201915b505050505081525050815250838381518110610a9d577f4e487b7100000000000000000000000000000000000000000000000000000000600052603260045260246000fd5b6020026020010181905250508080610ab4906130cd565b9150506107e6565b508092505050610b4b565b60008067ffffffffffffffff811115610b09577f4e487b7100000000000000000000000000000000000000000000000000000000600052604160045260246000fd5b604051908082528060200260200182016040528015610b4257816020015b610b2f612188565b815260200190600190039081610b275790505b50905080925050505b90565b6000610b5a60086118a2565b9050610b6633826118b0565b604051806060016040528085815260200184815260200183815250600660008381526020019081526020016000206000820151816000019080519060200190610bb09291906121a8565b506020820151816001019080519060200190610bcd9291906121a8565b506040820151816002019080519060200190610bea9291906121a8565b50905050610c1160405180606001604052806029815260200161353e6029913982866118ce565b600760003373ffffffffffffffffffffffffffffffffffffffff1673ffffffffffffffffffffffffffffffffffffffff168152602001908152602001600020819080600181540180825580915050600190039060005260206000200160009091909190915055610c816008611245565b7fa39f3c4b27288510d97b00a0ec9e2a78721796147af0e1c075f58579e995c748338286604051610cb493929190612a9e565b60405180910390a150505050565b610cdd838383604051806020016040528060008152506110e7565b505050565b6000806002600084815260200190815260200160002060009054906101000a900473ffffffffffffffffffffffffffffffffffffffff169050600073ffffffffffffffffffffffffffffffffffffffff168173ffffffffffffffffffffffffffffffffffffffff161415610d8b576040517f08c379a0000000000000000000000000000000000000000000000000000000008152600401610d8290612ccc565b60405180910390fd5b80915050919050565b60008073ffffffffffffffffffffffffffffffffffffffff168273ffffffffffffffffffffffffffffffffffffffff161415610e05576040517f08c379a0000000000000000000000000000000000000000000000000000000008152600401610dfc90612c6c565b60405180910390fd5b600360008373ffffffffffffffffffffffffffffffffffffffff1673ffffffffffffffffffffffffffffffffffffffff168152602001908152602001600020549050919050565b60076020528160005260406000208181548110610e6857600080fd5b90600052602060002001600091509150505481565b606060018054610e8c9061306a565b80601f0160208091040260200160405190810160405280929190818152602001828054610eb89061306a565b8015610f055780601f10610eda57610100808354040283529160200191610f05565b820191906000526020600020905b815481529060010190602001808311610ee857829003601f168201915b5050505050905090565b6006602052806000526040600020600091509050806000018054610f329061306a565b80601f0160208091040260200160405190810160405280929190818152602001828054610f5e9061306a565b8015610fab5780601f10610f8057610100808354040283529160200191610fab565b820191906000526020600020905b815481529060010190602001808311610f8e57829003601f168201915b505050505090806001018054610fc09061306a565b80601f0160208091040260200160405190810160405280929190818152602001828054610fec9061306a565b80156110395780601f1061100e57610100808354040283529160200191611039565b820191906000526020600020905b81548152906001019060200180831161101c57829003601f168201915b50505050509080600201805461104e9061306a565b80601f016020809104026020016040519081016040528092919081815260200182805461107a9061306a565b80156110c75780601f1061109c576101008083540402835291602001916110c7565b820191906000526020600020905b8154815290600101906020018083116110aa57829003601f168201915b5050505050905083565b6110e36110dc611310565b838361196d565b5050565b6110f86110f2611310565b836113d1565b611137576040517f08c379a000000000000000000000000000000000000000000000000000000000815260040161112e90612d0c565b60405180910390fd5b61114384848484611ada565b50505050565b6060611154826112c5565b600061115e611b36565b9050600081511161117e57604051806020016040528060008152506111a9565b8061118884611b4d565b604051602001611199929190612a13565b6040516020818303038152906040525b915050919050565b6000600560008473ffffffffffffffffffffffffffffffffffffffff1673ffffffffffffffffffffffffffffffffffffffff16815260200190815260200160002060008373ffffffffffffffffffffffffffffffffffffffff1673ffffffffffffffffffffffffffffffffffffffff16815260200190815260200160002060009054906101000a900460ff16905092915050565b6001816000016000828254019250508190555050565b60007f01ffc9a7000000000000000000000000000000000000000000000000000000007bffffffffffffffffffffffffffffffffffffffffffffffffffffffff1916827bffffffffffffffffffffffffffffffffffffffffffffffffffffffff1916149050919050565b6112ce81611cfa565b61130d576040517f08c379a000000000000000000000000000000000000000000000000000000000815260040161130490612ccc565b60405180910390fd5b50565b600033905090565b816004600083815260200190815260200160002060006101000a81548173ffffffffffffffffffffffffffffffffffffffff021916908373ffffffffffffffffffffffffffffffffffffffff160217905550808273ffffffffffffffffffffffffffffffffffffffff1661138b83610ce2565b73ffffffffffffffffffffffffffffffffffffffff167f8c5be1e5ebec7d5bd14f71427d1e84f3dd0314c0f7b2291e5b200ac8c7c3b92560405160405180910390a45050565b6000806113dd83610ce2565b90508073ffffffffffffffffffffffffffffffffffffffff168473ffffffffffffffffffffffffffffffffffffffff16148061141f575061141e81856111b1565b5b8061145d57508373ffffffffffffffffffffffffffffffffffffffff1661144584610508565b73ffffffffffffffffffffffffffffffffffffffff16145b91505092915050565b8273ffffffffffffffffffffffffffffffffffffffff1661148682610ce2565b73ffffffffffffffffffffffffffffffffffffffff16146114dc576040517f08c379a00000000000000000000000000000000000000000000000000000000081526004016114d390612bec565b60405180910390fd5b600073ffffffffffffffffffffffffffffffffffffffff168273ffffffffffffffffffffffffffffffffffffffff16141561154c576040517f08c379a000000000000000000000000000000000000000000000000000000000815260040161154390612c2c565b60405180910390fd5b611557838383611d66565b611562600082611318565b6001600360008573ffffffffffffffffffffffffffffffffffffffff1673ffffffffffffffffffffffffffffffffffffffff16815260200190815260200160002060008282546115b29190612f73565b925050819055506001600360008473ffffffffffffffffffffffffffffffffffffffff1673ffffffffffffffffffffffffffffffffffffffff16815260200190815260200160002060008282546116099190612e5b565b92505081905550816002600083815260200190815260200160002060006101000a81548173ffffffffffffffffffffffffffffffffffffffff021916908373ffffffffffffffffffffffffffffffffffffffff160217905550808273ffffffffffffffffffffffffffffffffffffffff168473ffffffffffffffffffffffffffffffffffffffff167fddf252ad1be2c89b69c2b068fc378daa952ba7f163c4a11628f55a4df523b3ef60405160405180910390a46116c8838383611d6b565b505050565b60606000821415611715576040518060400160405280600181526020017f3000000000000000000000000000000000000000000000000000000000000000815250905061189d565b600082905060005b60008214611747578080611730906130cd565b915050600a826117409190612ee8565b915061171d565b60008167ffffffffffffffff811115611789577f4e487b7100000000000000000000000000000000000000000000000000000000600052604160045260246000fd5b6040519080825280601f01601f1916602001820160405280156117bb5781602001600182028036833780820191505090505b50905060008290505b60008614611895576001816117d99190612f73565b90506000600a80886117eb9190612ee8565b6117f59190612f19565b876118009190612f73565b603061180c9190612eb1565b905060008160f81b905080848481518110611850577f4e487b7100000000000000000000000000000000000000000000000000000000600052603260045260246000fd5b60200101907effffffffffffffffffffffffffffffffffffffffffffffffffffffffffffff1916908160001a905350600a8861188c9190612ee8565b975050506117c4565b819450505050505b919050565b600081600001549050919050565b6118ca828260405180602001604052806000815250611d70565b5050565b6119688383836040516024016118e693929190612b87565b6040516020818303038152906040527fa3f5c739000000000000000000000000000000000000000000000000000000007bffffffffffffffffffffffffffffffffffffffffffffffffffffffff19166020820180517bffffffffffffffffffffffffffffffffffffffffffffffffffffffff8381831617835250505050611dcb565b505050565b8173ffffffffffffffffffffffffffffffffffffffff168373ffffffffffffffffffffffffffffffffffffffff1614156119dc576040517f08c379a00000000000000000000000000000000000000000000000000000000081526004016119d390612c4c565b60405180910390fd5b80600560008573ffffffffffffffffffffffffffffffffffffffff1673ffffffffffffffffffffffffffffffffffffffff16815260200190815260200160002060008473ffffffffffffffffffffffffffffffffffffffff1673ffffffffffffffffffffffffffffffffffffffff16815260200190815260200160002060006101000a81548160ff0219169083151502179055508173ffffffffffffffffffffffffffffffffffffffff168373ffffffffffffffffffffffffffffffffffffffff167f17307eab39ab6107e8899845ad3d59bd9653f200f220920489ca2b5937696c3183604051611acd9190612afe565b60405180910390a3505050565b611ae5848484611466565b611af184848484611df4565b611b30576040517f08c379a0000000000000000000000000000000000000000000000000000000008152600401611b2790612bcc565b60405180910390fd5b50505050565b606060405180602001604052806000815250905090565b60606000821415611b95576040518060400160405280600181526020017f30000000000000000000000000000000000000000000000000000000000000008152509050611cf5565b600082905060005b60008214611bc7578080611bb0906130cd565b915050600a82611bc09190612ee8565b9150611b9d565b60008167ffffffffffffffff811115611c09577f4e487b7100000000000000000000000000000000000000000000000000000000600052604160045260246000fd5b6040519080825280601f01601f191660200182016040528015611c3b5781602001600182028036833780820191505090505b5090505b60008514611cee57600182611c549190612f73565b9150600a85611c639190613116565b6030611c6f9190612e5b565b60f81b818381518110611cab577f4e487b7100000000000000000000000000000000000000000000000000000000600052603260045260246000fd5b60200101907effffffffffffffffffffffffffffffffffffffffffffffffffffffffffffff1916908160001a905350600a85611ce79190612ee8565b9450611c3f565b8093505050505b919050565b60008073ffffffffffffffffffffffffffffffffffffffff166002600084815260200190815260200160002060009054906101000a900473ffffffffffffffffffffffffffffffffffffffff1673ffffffffffffffffffffffffffffffffffffffff1614159050919050565b505050565b505050565b611d7a8383611f8b565b611d876000848484611df4565b611dc6576040517f08c379a0000000000000000000000000000000000000000000000000000000008152600401611dbd90612bcc565b60405180910390fd5b505050565b60008151905060006a636f6e736f6c652e6c6f679050602083016000808483855afa5050505050565b6000611e158473ffffffffffffffffffffffffffffffffffffffff16612165565b15611f7e578373ffffffffffffffffffffffffffffffffffffffff1663150b7a02611e3e611310565b8786866040518563ffffffff1660e01b8152600401611e609493929190612a52565b602060405180830381600087803b158015611e7a57600080fd5b505af1925050508015611eab57506040513d601f19601f82011682018060405250810190611ea89190612575565b60015b611f2e573d8060008114611edb576040519150601f19603f3d011682016040523d82523d6000602084013e611ee0565b606091505b50600081511415611f26576040517f08c379a0000000000000000000000000000000000000000000000000000000008152600401611f1d90612bcc565b60405180910390fd5b805181602001fd5b63150b7a0260e01b7bffffffffffffffffffffffffffffffffffffffffffffffffffffffff1916817bffffffffffffffffffffffffffffffffffffffffffffffffffffffff191614915050611f83565b600190505b949350505050565b600073ffffffffffffffffffffffffffffffffffffffff168273ffffffffffffffffffffffffffffffffffffffff161415611ffb576040517f08c379a0000000000000000000000000000000000000000000000000000000008152600401611ff290612cac565b60405180910390fd5b61200481611cfa565b15612044576040517f08c379a000000000000000000000000000000000000000000000000000000000815260040161203b90612c0c565b60405180910390fd5b61205060008383611d66565b6001600360008473ffffffffffffffffffffffffffffffffffffffff1673ffffffffffffffffffffffffffffffffffffffff16815260200190815260200160002060008282546120a09190612e5b565b92505081905550816002600083815260200190815260200160002060006101000a81548173ffffffffffffffffffffffffffffffffffffffff021916908373ffffffffffffffffffffffffffffffffffffffff160217905550808273ffffffffffffffffffffffffffffffffffffffff16600073ffffffffffffffffffffffffffffffffffffffff167fddf252ad1be2c89b69c2b068fc378daa952ba7f163c4a11628f55a4df523b3ef60405160405180910390a461216160008383611d6b565b5050565b6000808273ffffffffffffffffffffffffffffffffffffffff163b119050919050565b6040518060400160405280606081526020016121a261222e565b81525090565b8280546121b49061306a565b90600052602060002090601f0160209004810192826121d6576000855561221d565b82601f106121ef57805160ff191683800117855561221d565b8280016001018555821561221d579182015b8281111561221c578251825591602001919060010190612201565b5b50905061222a919061224f565b5090565b60405180606001604052806060815260200160608152602001606081525090565b5b80821115612268576000816000905550600101612250565b5090565b600061227f61227a84612d6c565b612d47565b90508281526020810184848401111561229757600080fd5b6122a2848285613028565b509392505050565b60006122bd6122b884612d9d565b612d47565b9050828152602081018484840111156122d557600080fd5b6122e0848285613028565b509392505050565b6000813590506122f7816134e1565b92915050565b60008135905061230c816134f8565b92915050565b6000813590506123218161350f565b92915050565b6000815190506123368161350f565b92915050565b600082601f83011261234d57600080fd5b813561235d84826020860161226c565b91505092915050565b600082601f83011261237757600080fd5b81356123878482602086016122aa565b91505092915050565b60008135905061239f81613526565b92915050565b6000602082840312156123b757600080fd5b60006123c5848285016122e8565b91505092915050565b600080604083850312156123e157600080fd5b60006123ef858286016122e8565b9250506020612400858286016122e8565b9150509250929050565b60008060006060848603121561241f57600080fd5b600061242d868287016122e8565b935050602061243e868287016122e8565b925050604061244f86828701612390565b9150509250925092565b6000806000806080858703121561246f57600080fd5b600061247d878288016122e8565b945050602061248e878288016122e8565b935050604061249f87828801612390565b925050606085013567ffffffffffffffff8111156124bc57600080fd5b6124c88782880161233c565b91505092959194509250565b600080604083850312156124e757600080fd5b60006124f5858286016122e8565b9250506020612506858286016122fd565b9150509250929050565b6000806040838503121561252357600080fd5b6000612531858286016122e8565b925050602061254285828601612390565b9150509250929050565b60006020828403121561255e57600080fd5b600061256c84828501612312565b91505092915050565b60006020828403121561258757600080fd5b600061259584828501612327565b91505092915050565b6000806000606084860312156125b357600080fd5b600084013567ffffffffffffffff8111156125cd57600080fd5b6125d986828701612366565b935050602084013567ffffffffffffffff8111156125f657600080fd5b61260286828701612366565b925050604084013567ffffffffffffffff81111561261f57600080fd5b61262b86828701612366565b9150509250925092565b60006020828403121561264757600080fd5b600061265584828501612390565b91505092915050565b600061266a8383612962565b905092915050565b61267b81612fa7565b82525050565b600061268c82612dde565b6126968185612e0c565b9350836020820285016126a885612dce565b8060005b858110156126e457848403895281516126c5858261265e565b94506126d083612dff565b925060208a019950506001810190506126ac565b50829750879550505050505092915050565b6126ff81612fb9565b82525050565b600061271082612de9565b61271a8185612e1d565b935061272a818560208601613037565b61273381613203565b840191505092915050565b600061274982612df4565b6127538185612e2e565b9350612763818560208601613037565b61276c81613203565b840191505092915050565b600061278282612df4565b61278c8185612e3f565b935061279c818560208601613037565b6127a581613203565b840191505092915050565b60006127bb82612df4565b6127c58185612e50565b93506127d5818560208601613037565b80840191505092915050565b60006127ee603283612e3f565b91506127f982613214565b604082019050919050565b6000612811602583612e3f565b915061281c82613263565b604082019050919050565b6000612834601c83612e3f565b915061283f826132b2565b602082019050919050565b6000612857602483612e3f565b9150612862826132db565b604082019050919050565b600061287a601983612e3f565b91506128858261332a565b602082019050919050565b600061289d602983612e3f565b91506128a882613353565b604082019050919050565b60006128c0603e83612e3f565b91506128cb826133a2565b604082019050919050565b60006128e3602083612e3f565b91506128ee826133f1565b602082019050919050565b6000612906601883612e3f565b91506129118261341a565b602082019050919050565b6000612929602183612e3f565b915061293482613443565b604082019050919050565b600061294c602e83612e3f565b915061295782613492565b604082019050919050565b6000604083016000830151848203600086015261297f828261273e565b9150506020830151848203602086015261299982826129a6565b9150508091505092915050565b600060608301600083015184820360008601526129c3828261273e565b915050602083015184820360208601526129dd828261273e565b915050604083015184820360408601526129f7828261273e565b9150508091505092915050565b612a0d81613011565b82525050565b6000612a1f82856127b0565b9150612a2b82846127b0565b91508190509392505050565b6000602082019050612a4c6000830184612672565b92915050565b6000608082019050612a676000830187612672565b612a746020830186612672565b612a816040830185612a04565b8181036060830152612a938184612705565b905095945050505050565b6000606082019050612ab36000830186612672565b612ac06020830185612a04565b8181036040830152612ad28184612777565b9050949350505050565b60006020820190508181036000830152612af68184612681565b905092915050565b6000602082019050612b1360008301846126f6565b92915050565b60006020820190508181036000830152612b338184612777565b905092915050565b60006060820190508181036000830152612b558186612777565b90508181036020830152612b698185612777565b90508181036040830152612b7d8184612777565b9050949350505050565b60006060820190508181036000830152612ba18186612777565b9050612bb06020830185612a04565b8181036040830152612bc28184612777565b9050949350505050565b60006020820190508181036000830152612be5816127e1565b9050919050565b60006020820190508181036000830152612c0581612804565b9050919050565b60006020820190508181036000830152612c2581612827565b9050919050565b60006020820190508181036000830152612c458161284a565b9050919050565b60006020820190508181036000830152612c658161286d565b9050919050565b60006020820190508181036000830152612c8581612890565b9050919050565b60006020820190508181036000830152612ca5816128b3565b9050919050565b60006020820190508181036000830152612cc5816128d6565b9050919050565b60006020820190508181036000830152612ce5816128f9565b9050919050565b60006020820190508181036000830152612d058161291c565b9050919050565b60006020820190508181036000830152612d258161293f565b9050919050565b6000602082019050612d416000830184612a04565b92915050565b6000612d51612d62565b9050612d5d828261309c565b919050565b6000604051905090565b600067ffffffffffffffff821115612d8757612d866131d4565b5b612d9082613203565b9050602081019050919050565b600067ffffffffffffffff821115612db857612db76131d4565b5b612dc182613203565b9050602081019050919050565b6000819050602082019050919050565b600081519050919050565b600081519050919050565b600081519050919050565b6000602082019050919050565b600082825260208201905092915050565b600082825260208201905092915050565b600082825260208201905092915050565b600082825260208201905092915050565b600081905092915050565b6000612e6682613011565b9150612e7183613011565b9250827fffffffffffffffffffffffffffffffffffffffffffffffffffffffffffffffff03821115612ea657612ea5613147565b5b828201905092915050565b6000612ebc8261301b565b9150612ec78361301b565b92508260ff03821115612edd57612edc613147565b5b828201905092915050565b6000612ef382613011565b9150612efe83613011565b925082612f0e57612f0d613176565b5b828204905092915050565b6000612f2482613011565b9150612f2f83613011565b9250817fffffffffffffffffffffffffffffffffffffffffffffffffffffffffffffffff0483118215151615612f6857612f67613147565b5b828202905092915050565b6000612f7e82613011565b9150612f8983613011565b925082821015612f9c57612f9b613147565b5b828203905092915050565b6000612fb282612ff1565b9050919050565b60008115159050919050565b60007fffffffff0000000000000000000000000000000000000000000000000000000082169050919050565b600073ffffffffffffffffffffffffffffffffffffffff82169050919050565b6000819050919050565b600060ff82169050919050565b82818337600083830152505050565b60005b8381101561305557808201518184015260208101905061303a565b83811115613064576000848401525b50505050565b6000600282049050600182168061308257607f821691505b60208210811415613096576130956131a5565b5b50919050565b6130a582613203565b810181811067ffffffffffffffff821117156130c4576130c36131d4565b5b80604052505050565b60006130d882613011565b91507fffffffffffffffffffffffffffffffffffffffffffffffffffffffffffffffff82141561310b5761310a613147565b5b600182019050919050565b600061312182613011565b915061312c83613011565b92508261313c5761313b613176565b5b828206905092915050565b7f4e487b7100000000000000000000000000000000000000000000000000000000600052601160045260246000fd5b7f4e487b7100000000000000000000000000000000000000000000000000000000600052601260045260246000fd5b7f4e487b7100000000000000000000000000000000000000000000000000000000600052602260045260246000fd5b7f4e487b7100000000000000000000000000000000000000000000000000000000600052604160045260246000fd5b6000601f19601f8301169050919050565b7f4552433732313a207472616e7366657220746f206e6f6e20455243373231526560008201527f63656976657220696d706c656d656e7465720000000000000000000000000000602082015250565b7f4552433732313a207472616e736665722066726f6d20696e636f72726563742060008201527f6f776e6572000000000000000000000000000000000000000000000000000000602082015250565b7f4552433732313a20746f6b656e20616c7265616479206d696e74656400000000600082015250565b7f4552433732313a207472616e7366657220746f20746865207a65726f2061646460008201527f7265737300000000000000000000000000000000000000000000000000000000602082015250565b7f4552433732313a20617070726f766520746f2063616c6c657200000000000000600082015250565b7f4552433732313a2061646472657373207a65726f206973206e6f74206120766160008201527f6c6964206f776e65720000000000000000000000000000000000000000000000602082015250565b7f4552433732313a20617070726f76652063616c6c6572206973206e6f7420746f60008201527f6b656e206f776e6572206e6f7220617070726f76656420666f7220616c6c0000602082015250565b7f4552433732313a206d696e7420746f20746865207a65726f2061646472657373600082015250565b7f4552433732313a20696e76616c696420746f6b656e2049440000000000000000600082015250565b7f4552433732313a20617070726f76616c20746f2063757272656e74206f776e6560008201527f7200000000000000000000000000000000000000000000000000000000000000602082015250565b7f4552433732313a2063616c6c6572206973206e6f7420746f6b656e206f776e6560008201527f72206e6f7220617070726f766564000000000000000000000000000000000000602082015250565b6134ea81612fa7565b81146134f557600080fd5b50565b61350181612fb9565b811461350c57600080fd5b50565b61351881612fc5565b811461352357600080fd5b50565b61352f81613011565b811461353a57600080fd5b5056fe4d696e746564204e465420772f20746f6b656e496420257320616e642070726f647563744944202573a264697066735822122080052f514b31c4b4339019afa46f0af4d9c5cf24e0c79a639dfbe4f980a8662164736f6c63430008040033",
  "linkReferences": {},
  "deployedLinkReferences": {}
}