{
  "_format": "hh-sol-artifact-1",
  "contractName": "GateKeeper",
  "sourceName": "contracts/GateKeeper.sol",
  "abi": [
    {
      "inputs": [],
      "stateMutability": "nonpayable",
      "type": "constructor"
    },
    {
      "anonymous": false,
      "inputs": [
        {
          "indexed": true,
          "internalType": "address",
          "name": "owner",
          "type": "address"
        },
        {
          "indexed": true,
          "internalType": "address",
          "name": "approved",
          "type": "address"
        },
        {
          "indexed": true,
          "internalType": "uint256",
          "name": "tokenId",
          "type": "uint256"
        }
      ],
      "name": "Approval",
      "type": "event"
    },
    {
      "anonymous": false,
      "inputs": [
        {
          "indexed": true,
          "internalType": "address",
          "name": "owner",
          "type": "address"
        },
        {
          "indexed": true,
          "internalType": "address",
          "name": "operator",
          "type": "address"
        },
        {
          "indexed": false,
          "internalType": "bool",
          "name": "approved",
          "type": "bool"
        }
      ],
      "name": "ApprovalForAll",
      "type": "event"
    },
    {
      "anonymous": false,
      "inputs": [
        {
          "indexed": false,
          "internalType": "address",
          "name": "sender",
          "type": "address"
        },
        {
          "indexed": false,
          "internalType": "uint256",
          "name": "tokenId",
          "type": "uint256"
        },
        {
          "indexed": false,
          "internalType": "string",
          "name": "productId",
          "type": "string"
        }
      ],
      "name": "LicenseMinted",
      "type": "event"
    },
    {
      "anonymous": false,
      "inputs": [
        {
          "indexed": true,
          "internalType": "address",
          "name": "from",
          "type": "address"
        },
        {
          "indexed": true,
          "internalType": "address",
          "name": "to",
          "type": "address"
        },
        {
          "indexed": true,
          "internalType": "uint256",
          "name": "tokenId",
          "type": "uint256"
        }
      ],
      "name": "Transfer",
      "type": "event"
    },
    {
      "inputs": [
        {
          "internalType": "address",
          "name": "to",
          "type": "address"
        },
        {
          "internalType": "uint256",
          "name": "tokenId",
          "type": "uint256"
        }
      ],
      "name": "approve",
      "outputs": [],
      "stateMutability": "nonpayable",
      "type": "function"
    },
    {
      "inputs": [
        {
          "internalType": "address",
          "name": "owner",
          "type": "address"
        }
      ],
      "name": "balanceOf",
      "outputs": [
        {
          "internalType": "uint256",
          "name": "",
          "type": "uint256"
        }
      ],
      "stateMutability": "view",
      "type": "function"
    },
    {
      "inputs": [
        {
          "internalType": "uint256",
          "name": "tokenId",
          "type": "uint256"
        }
      ],
      "name": "getApproved",
      "outputs": [
        {
          "internalType": "address",
          "name": "",
          "type": "address"
        }
      ],
      "stateMutability": "view",
      "type": "function"
    },
    {
      "inputs": [],
      "name": "getUserLicenses",
      "outputs": [
        {
          "components": [
            {
              "internalType": "string",
              "name": "productID",
              "type": "string"
            },
            {
              "internalType": "string",
              "name": "productLicenseKey",
              "type": "string"
            }
          ],
          "internalType": "struct GateKeeper.LicenseAttributes",
          "name": "",
          "type": "tuple"
        }
      ],
      "stateMutability": "view",
      "type": "function"
    },
    {
      "inputs": [
        {
          "internalType": "address",
          "name": "owner",
          "type": "address"
        },
        {
          "internalType": "address",
          "name": "operator",
          "type": "address"
        }
      ],
      "name": "isApprovedForAll",
      "outputs": [
        {
          "internalType": "bool",
          "name": "",
          "type": "bool"
        }
      ],
      "stateMutability": "view",
      "type": "function"
    },
    {
      "inputs": [
        {
          "internalType": "string",
          "name": "_productId",
          "type": "string"
        },
        {
          "internalType": "string",
          "name": "_licenseKey",
          "type": "string"
        }
      ],
      "name": "mintLicenseNFT",
      "outputs": [],
      "stateMutability": "nonpayable",
      "type": "function"
    },
    {
      "inputs": [],
      "name": "name",
      "outputs": [
        {
          "internalType": "string",
          "name": "",
          "type": "string"
        }
      ],
      "stateMutability": "view",
      "type": "function"
    },
    {
      "inputs": [
        {
          "internalType": "uint256",
          "name": "",
          "type": "uint256"
        }
      ],
      "name": "nftHolderAttributes",
      "outputs": [
        {
          "internalType": "string",
          "name": "productID",
          "type": "string"
        },
        {
          "internalType": "string",
          "name": "productLicenseKey",
          "type": "string"
        }
      ],
      "stateMutability": "view",
      "type": "function"
    },
    {
      "inputs": [
        {
          "internalType": "address",
          "name": "",
          "type": "address"
        }
      ],
      "name": "nftHolders",
      "outputs": [
        {
          "internalType": "uint256",
          "name": "",
          "type": "uint256"
        }
      ],
      "stateMutability": "view",
      "type": "function"
    },
    {
      "inputs": [
        {
          "internalType": "uint256",
          "name": "tokenId",
          "type": "uint256"
        }
      ],
      "name": "ownerOf",
      "outputs": [
        {
          "internalType": "address",
          "name": "",
          "type": "address"
        }
      ],
      "stateMutability": "view",
      "type": "function"
    },
    {
      "inputs": [
        {
          "internalType": "address",
          "name": "from",
          "type": "address"
        },
        {
          "internalType": "address",
          "name": "to",
          "type": "address"
        },
        {
          "internalType": "uint256",
          "name": "tokenId",
          "type": "uint256"
        }
      ],
      "name": "safeTransferFrom",
      "outputs": [],
      "stateMutability": "nonpayable",
      "type": "function"
    },
    {
      "inputs": [
        {
          "internalType": "address",
          "name": "from",
          "type": "address"
        },
        {
          "internalType": "address",
          "name": "to",
          "type": "address"
        },
        {
          "internalType": "uint256",
          "name": "tokenId",
          "type": "uint256"
        },
        {
          "internalType": "bytes",
          "name": "data",
          "type": "bytes"
        }
      ],
      "name": "safeTransferFrom",
      "outputs": [],
      "stateMutability": "nonpayable",
      "type": "function"
    },
    {
      "inputs": [
        {
          "internalType": "address",
          "name": "operator",
          "type": "address"
        },
        {
          "internalType": "bool",
          "name": "approved",
          "type": "bool"
        }
      ],
      "name": "setApprovalForAll",
      "outputs": [],
      "stateMutability": "nonpayable",
      "type": "function"
    },
    {
      "inputs": [
        {
          "internalType": "bytes4",
          "name": "interfaceId",
          "type": "bytes4"
        }
      ],
      "name": "supportsInterface",
      "outputs": [
        {
          "internalType": "bool",
          "name": "",
          "type": "bool"
        }
      ],
      "stateMutability": "view",
      "type": "function"
    },
    {
      "inputs": [],
      "name": "symbol",
      "outputs": [
        {
          "internalType": "string",
          "name": "",
          "type": "string"
        }
      ],
      "stateMutability": "view",
      "type": "function"
    },
    {
      "inputs": [
        {
          "internalType": "uint256",
          "name": "tokenId",
          "type": "uint256"
        }
      ],
      "name": "tokenURI",
      "outputs": [
        {
          "internalType": "string",
          "name": "",
          "type": "string"
        }
      ],
      "stateMutability": "view",
      "type": "function"
    },
    {
      "inputs": [
        {
          "internalType": "address",
          "name": "from",
          "type": "address"
        },
        {
          "internalType": "address",
          "name": "to",
          "type": "address"
        },
        {
          "internalType": "uint256",
          "name": "tokenId",
          "type": "uint256"
        }
      ],
      "name": "transferFrom",
      "outputs": [],
      "stateMutability": "nonpayable",
      "type": "function"
    }
  ],
  "bytecode": "0x60806040523480156200001157600080fd5b506040518060400160405280600a81526020017f476174654b6565706572000000000000000000000000000000000000000000008152506040518060400160405280600781526020017f4c6963656e736500000000000000000000000000000000000000000000000000815250816000908051906020019062000096929190620000e5565b508060019080519060200190620000af929190620000e5565b505050620000c96008620000cf60201b62000f4f1760201c565b620001fa565b6001816000016000828254019250508190555050565b828054620000f39062000195565b90600052602060002090601f01602090048101928262000117576000855562000163565b82601f106200013257805160ff191683800117855562000163565b8280016001018555821562000163579182015b828111156200016257825182559160200191906001019062000145565b5b50905062000172919062000176565b5090565b5b808211156200019157600081600090555060010162000177565b5090565b60006002820490506001821680620001ae57607f821691505b60208210811415620001c557620001c4620001cb565b5b50919050565b7f4e487b7100000000000000000000000000000000000000000000000000000000600052602260045260246000fd5b612e95806200020a6000396000f3fe608060405234801561001057600080fd5b506004361061010b5760003560e01c80636352211e116100a257806398da4c951161007157806398da4c95146102ca578063a22cb465146102fb578063b88d4fde14610317578063c87b56dd14610333578063e985e9c5146103635761010b565b80636352211e1461021c57806370a082311461024c5780637df124a11461027c57806395d89b41146102ac5761010b565b80630eecbe79116100de5780630eecbe79146101aa57806323b872dd146101c657806331c91735146101e257806342842e0e146102005761010b565b806301ffc9a71461011057806306fdde0314610140578063081812fc1461015e578063095ea7b31461018e575b600080fd5b61012a6004803603810190610125919061203c565b610393565b60405161013791906124f2565b60405180910390f35b610148610475565b604051610155919061250d565b60405180910390f35b61017860048036038101906101739190612103565b610507565b604051610185919061244b565b60405180910390f35b6101a860048036038101906101a39190612000565b61054d565b005b6101c460048036038101906101bf919061208e565b610665565b005b6101e060048036038101906101db9190611efa565b610863565b005b6101ea6108c3565b6040516101f7919061270b565b60405180910390f35b61021a60048036038101906102159190611efa565b610a73565b005b61023660048036038101906102319190612103565b610a93565b604051610243919061244b565b60405180910390f35b61026660048036038101906102619190611e95565b610b45565b604051610273919061272d565b60405180910390f35b61029660048036038101906102919190611e95565b610bfd565b6040516102a3919061272d565b60405180910390f35b6102b4610c15565b6040516102c1919061250d565b60405180910390f35b6102e460048036038101906102df9190612103565b610ca7565b6040516102f292919061252f565b60405180910390f35b61031560048036038101906103109190611fc4565b610ddb565b005b610331600480360381019061032c9190611f49565b610df1565b005b61034d60048036038101906103489190612103565b610e53565b60405161035a919061250d565b60405180910390f35b61037d60048036038101906103789190611ebe565b610ebb565b60405161038a91906124f2565b60405180910390f35b60007f80ac58cd000000000000000000000000000000000000000000000000000000007bffffffffffffffffffffffffffffffffffffffffffffffffffffffff1916827bffffffffffffffffffffffffffffffffffffffffffffffffffffffff1916148061045e57507f5b5e139f000000000000000000000000000000000000000000000000000000007bffffffffffffffffffffffffffffffffffffffffffffffffffffffff1916827bffffffffffffffffffffffffffffffffffffffffffffffffffffffff1916145b8061046e575061046d82610f65565b5b9050919050565b60606000805461048490612963565b80601f01602080910402602001604051908101604052809291908181526020018280546104b090612963565b80156104fd5780601f106104d2576101008083540402835291602001916104fd565b820191906000526020600020905b8154815290600101906020018083116104e057829003601f168201915b5050505050905090565b600061051282610fcf565b6004600083815260200190815260200160002060009054906101000a900473ffffffffffffffffffffffffffffffffffffffff169050919050565b600061055882610a93565b90508073ffffffffffffffffffffffffffffffffffffffff168373ffffffffffffffffffffffffffffffffffffffff1614156105c9576040517f08c379a00000000000000000000000000000000000000000000000000000000081526004016105c0906126cb565b60405180910390fd5b8073ffffffffffffffffffffffffffffffffffffffff166105e861101a565b73ffffffffffffffffffffffffffffffffffffffff16148061061757506106168161061161101a565b610ebb565b5b610656576040517f08c379a000000000000000000000000000000000000000000000000000000000815260040161064d9061266b565b60405180910390fd5b6106608383611022565b505050565b600061067160086110db565b905061067d33826110e9565b604051806040016040528086868080601f016020809104026020016040519081016040528093929190818152602001838380828437600081840152601f19601f82011690508083019250505050505050815260200184848080601f016020809104026020016040519081016040528093929190818152602001838380828437600081840152601f19601f82011690508083019250505050505050815250600660008381526020019081526020016000206000820151816000019080519060200190610749929190611cbd565b506020820151816001019080519060200190610766929190611cbd565b509050506107d1604051806060016040528060298152602001612e37602991398287878080601f016020809104026020016040519081016040528093929190818152602001838380828437600081840152601f19601f82011690508083019250505050505050611107565b80600760003373ffffffffffffffffffffffffffffffffffffffff1673ffffffffffffffffffffffffffffffffffffffff1681526020019081526020016000208190555061081f6008610f4f565b7fa39f3c4b27288510d97b00a0ec9e2a78721796147af0e1c075f58579e995c7483382878760405161085494939291906124b2565b60405180910390a15050505050565b61087461086e61101a565b826111a6565b6108b3576040517f08c379a00000000000000000000000000000000000000000000000000000000081526004016108aa906126eb565b60405180910390fd5b6108be83838361123b565b505050565b6108cb611d43565b6000600760003373ffffffffffffffffffffffffffffffffffffffff1673ffffffffffffffffffffffffffffffffffffffff1681526020019081526020016000205490506000811115610a62576006600082815260200190815260200160002060405180604001604052908160008201805461094690612963565b80601f016020809104026020016040519081016040528092919081815260200182805461097290612963565b80156109bf5780601f10610994576101008083540402835291602001916109bf565b820191906000526020600020905b8154815290600101906020018083116109a257829003601f168201915b505050505081526020016001820180546109d890612963565b80601f0160208091040260200160405190810160405280929190818152602001828054610a0490612963565b8015610a515780601f10610a2657610100808354040283529160200191610a51565b820191906000526020600020905b815481529060010190602001808311610a3457829003601f168201915b505050505081525050915050610a70565b610a6a611d43565b80925050505b90565b610a8e83838360405180602001604052806000815250610df1565b505050565b6000806002600084815260200190815260200160002060009054906101000a900473ffffffffffffffffffffffffffffffffffffffff169050600073ffffffffffffffffffffffffffffffffffffffff168173ffffffffffffffffffffffffffffffffffffffff161415610b3c576040517f08c379a0000000000000000000000000000000000000000000000000000000008152600401610b33906126ab565b60405180910390fd5b80915050919050565b60008073ffffffffffffffffffffffffffffffffffffffff168273ffffffffffffffffffffffffffffffffffffffff161415610bb6576040517f08c379a0000000000000000000000000000000000000000000000000000000008152600401610bad9061264b565b60405180910390fd5b600360008373ffffffffffffffffffffffffffffffffffffffff1673ffffffffffffffffffffffffffffffffffffffff168152602001908152602001600020549050919050565b60076020528060005260406000206000915090505481565b606060018054610c2490612963565b80601f0160208091040260200160405190810160405280929190818152602001828054610c5090612963565b8015610c9d5780601f10610c7257610100808354040283529160200191610c9d565b820191906000526020600020905b815481529060010190602001808311610c8057829003601f168201915b5050505050905090565b6006602052806000526040600020600091509050806000018054610cca90612963565b80601f0160208091040260200160405190810160405280929190818152602001828054610cf690612963565b8015610d435780601f10610d1857610100808354040283529160200191610d43565b820191906000526020600020905b815481529060010190602001808311610d2657829003601f168201915b505050505090806001018054610d5890612963565b80601f0160208091040260200160405190810160405280929190818152602001828054610d8490612963565b8015610dd15780601f10610da657610100808354040283529160200191610dd1565b820191906000526020600020905b815481529060010190602001808311610db457829003601f168201915b5050505050905082565b610ded610de661101a565b83836114a2565b5050565b610e02610dfc61101a565b836111a6565b610e41576040517f08c379a0000000000000000000000000000000000000000000000000000000008152600401610e38906126eb565b60405180910390fd5b610e4d8484848461160f565b50505050565b6060610e5e82610fcf565b6000610e6861166b565b90506000815111610e885760405180602001604052806000815250610eb3565b80610e9284611682565b604051602001610ea3929190612427565b6040516020818303038152906040525b915050919050565b6000600560008473ffffffffffffffffffffffffffffffffffffffff1673ffffffffffffffffffffffffffffffffffffffff16815260200190815260200160002060008373ffffffffffffffffffffffffffffffffffffffff1673ffffffffffffffffffffffffffffffffffffffff16815260200190815260200160002060009054906101000a900460ff16905092915050565b6001816000016000828254019250508190555050565b60007f01ffc9a7000000000000000000000000000000000000000000000000000000007bffffffffffffffffffffffffffffffffffffffffffffffffffffffff1916827bffffffffffffffffffffffffffffffffffffffffffffffffffffffff1916149050919050565b610fd88161182f565b611017576040517f08c379a000000000000000000000000000000000000000000000000000000000815260040161100e906126ab565b60405180910390fd5b50565b600033905090565b816004600083815260200190815260200160002060006101000a81548173ffffffffffffffffffffffffffffffffffffffff021916908373ffffffffffffffffffffffffffffffffffffffff160217905550808273ffffffffffffffffffffffffffffffffffffffff1661109583610a93565b73ffffffffffffffffffffffffffffffffffffffff167f8c5be1e5ebec7d5bd14f71427d1e84f3dd0314c0f7b2291e5b200ac8c7c3b92560405160405180910390a45050565b600081600001549050919050565b61110382826040518060200160405280600081525061189b565b5050565b6111a183838360405160240161111f93929190612566565b6040516020818303038152906040527fa3f5c739000000000000000000000000000000000000000000000000000000007bffffffffffffffffffffffffffffffffffffffffffffffffffffffff19166020820180517bffffffffffffffffffffffffffffffffffffffffffffffffffffffff83818316178352505050506118f6565b505050565b6000806111b283610a93565b90508073ffffffffffffffffffffffffffffffffffffffff168473ffffffffffffffffffffffffffffffffffffffff1614806111f457506111f38185610ebb565b5b8061123257508373ffffffffffffffffffffffffffffffffffffffff1661121a84610507565b73ffffffffffffffffffffffffffffffffffffffff16145b91505092915050565b8273ffffffffffffffffffffffffffffffffffffffff1661125b82610a93565b73ffffffffffffffffffffffffffffffffffffffff16146112b1576040517f08c379a00000000000000000000000000000000000000000000000000000000081526004016112a8906125cb565b60405180910390fd5b600073ffffffffffffffffffffffffffffffffffffffff168273ffffffffffffffffffffffffffffffffffffffff161415611321576040517f08c379a00000000000000000000000000000000000000000000000000000000081526004016113189061260b565b60405180910390fd5b61132c83838361191f565b611337600082611022565b6001600360008573ffffffffffffffffffffffffffffffffffffffff1673ffffffffffffffffffffffffffffffffffffffff16815260200190815260200160002060008282546113879190612879565b925050819055506001600360008473ffffffffffffffffffffffffffffffffffffffff1673ffffffffffffffffffffffffffffffffffffffff16815260200190815260200160002060008282546113de91906127f2565b92505081905550816002600083815260200190815260200160002060006101000a81548173ffffffffffffffffffffffffffffffffffffffff021916908373ffffffffffffffffffffffffffffffffffffffff160217905550808273ffffffffffffffffffffffffffffffffffffffff168473ffffffffffffffffffffffffffffffffffffffff167fddf252ad1be2c89b69c2b068fc378daa952ba7f163c4a11628f55a4df523b3ef60405160405180910390a461149d838383611924565b505050565b8173ffffffffffffffffffffffffffffffffffffffff168373ffffffffffffffffffffffffffffffffffffffff161415611511576040517f08c379a00000000000000000000000000000000000000000000000000000000081526004016115089061262b565b60405180910390fd5b80600560008573ffffffffffffffffffffffffffffffffffffffff1673ffffffffffffffffffffffffffffffffffffffff16815260200190815260200160002060008473ffffffffffffffffffffffffffffffffffffffff1673ffffffffffffffffffffffffffffffffffffffff16815260200190815260200160002060006101000a81548160ff0219169083151502179055508173ffffffffffffffffffffffffffffffffffffffff168373ffffffffffffffffffffffffffffffffffffffff167f17307eab39ab6107e8899845ad3d59bd9653f200f220920489ca2b5937696c318360405161160291906124f2565b60405180910390a3505050565b61161a84848461123b565b61162684848484611929565b611665576040517f08c379a000000000000000000000000000000000000000000000000000000000815260040161165c906125ab565b60405180910390fd5b50505050565b606060405180602001604052806000815250905090565b606060008214156116ca576040518060400160405280600181526020017f3000000000000000000000000000000000000000000000000000000000000000815250905061182a565b600082905060005b600082146116fc5780806116e5906129c6565b915050600a826116f59190612848565b91506116d2565b60008167ffffffffffffffff81111561173e577f4e487b7100000000000000000000000000000000000000000000000000000000600052604160045260246000fd5b6040519080825280601f01601f1916602001820160405280156117705781602001600182028036833780820191505090505b5090505b60008514611823576001826117899190612879565b9150600a856117989190612a0f565b60306117a491906127f2565b60f81b8183815181106117e0577f4e487b7100000000000000000000000000000000000000000000000000000000600052603260045260246000fd5b60200101907effffffffffffffffffffffffffffffffffffffffffffffffffffffffffffff1916908160001a905350600a8561181c9190612848565b9450611774565b8093505050505b919050565b60008073ffffffffffffffffffffffffffffffffffffffff166002600084815260200190815260200160002060009054906101000a900473ffffffffffffffffffffffffffffffffffffffff1673ffffffffffffffffffffffffffffffffffffffff1614159050919050565b6118a58383611ac0565b6118b26000848484611929565b6118f1576040517f08c379a00000000000000000000000000000000000000000000000000000000081526004016118e8906125ab565b60405180910390fd5b505050565b60008151905060006a636f6e736f6c652e6c6f679050602083016000808483855afa5050505050565b505050565b505050565b600061194a8473ffffffffffffffffffffffffffffffffffffffff16611c9a565b15611ab3578373ffffffffffffffffffffffffffffffffffffffff1663150b7a0261197361101a565b8786866040518563ffffffff1660e01b81526004016119959493929190612466565b602060405180830381600087803b1580156119af57600080fd5b505af19250505080156119e057506040513d601f19601f820116820180604052508101906119dd9190612065565b60015b611a63573d8060008114611a10576040519150601f19603f3d011682016040523d82523d6000602084013e611a15565b606091505b50600081511415611a5b576040517f08c379a0000000000000000000000000000000000000000000000000000000008152600401611a52906125ab565b60405180910390fd5b805181602001fd5b63150b7a0260e01b7bffffffffffffffffffffffffffffffffffffffffffffffffffffffff1916817bffffffffffffffffffffffffffffffffffffffffffffffffffffffff191614915050611ab8565b600190505b949350505050565b600073ffffffffffffffffffffffffffffffffffffffff168273ffffffffffffffffffffffffffffffffffffffff161415611b30576040517f08c379a0000000000000000000000000000000000000000000000000000000008152600401611b279061268b565b60405180910390fd5b611b398161182f565b15611b79576040517f08c379a0000000000000000000000000000000000000000000000000000000008152600401611b70906125eb565b60405180910390fd5b611b856000838361191f565b6001600360008473ffffffffffffffffffffffffffffffffffffffff1673ffffffffffffffffffffffffffffffffffffffff1681526020019081526020016000206000828254611bd591906127f2565b92505081905550816002600083815260200190815260200160002060006101000a81548173ffffffffffffffffffffffffffffffffffffffff021916908373ffffffffffffffffffffffffffffffffffffffff160217905550808273ffffffffffffffffffffffffffffffffffffffff16600073ffffffffffffffffffffffffffffffffffffffff167fddf252ad1be2c89b69c2b068fc378daa952ba7f163c4a11628f55a4df523b3ef60405160405180910390a4611c9660008383611924565b5050565b6000808273ffffffffffffffffffffffffffffffffffffffff163b119050919050565b828054611cc990612963565b90600052602060002090601f016020900481019282611ceb5760008555611d32565b82601f10611d0457805160ff1916838001178555611d32565b82800160010185558215611d32579182015b82811115611d31578251825591602001919060010190611d16565b5b509050611d3f9190611d5d565b5090565b604051806040016040528060608152602001606081525090565b5b80821115611d76576000816000905550600101611d5e565b5090565b6000611d8d611d888461276d565b612748565b905082815260208101848484011115611da557600080fd5b611db0848285612921565b509392505050565b600081359050611dc781612dda565b92915050565b600081359050611ddc81612df1565b92915050565b600081359050611df181612e08565b92915050565b600081519050611e0681612e08565b92915050565b600082601f830112611e1d57600080fd5b8135611e2d848260208601611d7a565b91505092915050565b60008083601f840112611e4857600080fd5b8235905067ffffffffffffffff811115611e6157600080fd5b602083019150836001820283011115611e7957600080fd5b9250929050565b600081359050611e8f81612e1f565b92915050565b600060208284031215611ea757600080fd5b6000611eb584828501611db8565b91505092915050565b60008060408385031215611ed157600080fd5b6000611edf85828601611db8565b9250506020611ef085828601611db8565b9150509250929050565b600080600060608486031215611f0f57600080fd5b6000611f1d86828701611db8565b9350506020611f2e86828701611db8565b9250506040611f3f86828701611e80565b9150509250925092565b60008060008060808587031215611f5f57600080fd5b6000611f6d87828801611db8565b9450506020611f7e87828801611db8565b9350506040611f8f87828801611e80565b925050606085013567ffffffffffffffff811115611fac57600080fd5b611fb887828801611e0c565b91505092959194509250565b60008060408385031215611fd757600080fd5b6000611fe585828601611db8565b9250506020611ff685828601611dcd565b9150509250929050565b6000806040838503121561201357600080fd5b600061202185828601611db8565b925050602061203285828601611e80565b9150509250929050565b60006020828403121561204e57600080fd5b600061205c84828501611de2565b91505092915050565b60006020828403121561207757600080fd5b600061208584828501611df7565b91505092915050565b600080600080604085870312156120a457600080fd5b600085013567ffffffffffffffff8111156120be57600080fd5b6120ca87828801611e36565b9450945050602085013567ffffffffffffffff8111156120e957600080fd5b6120f587828801611e36565b925092505092959194509250565b60006020828403121561211557600080fd5b600061212384828501611e80565b91505092915050565b612135816128ad565b82525050565b612144816128bf565b82525050565b60006121558261279e565b61215f81856127b4565b935061216f818560208601612930565b61217881612afc565b840191505092915050565b600061218f83856127d6565b935061219c838584612921565b6121a583612afc565b840190509392505050565b60006121bb826127a9565b6121c581856127c5565b93506121d5818560208601612930565b6121de81612afc565b840191505092915050565b60006121f4826127a9565b6121fe81856127d6565b935061220e818560208601612930565b61221781612afc565b840191505092915050565b600061222d826127a9565b61223781856127e7565b9350612247818560208601612930565b80840191505092915050565b60006122606032836127d6565b915061226b82612b0d565b604082019050919050565b60006122836025836127d6565b915061228e82612b5c565b604082019050919050565b60006122a6601c836127d6565b91506122b182612bab565b602082019050919050565b60006122c96024836127d6565b91506122d482612bd4565b604082019050919050565b60006122ec6019836127d6565b91506122f782612c23565b602082019050919050565b600061230f6029836127d6565b915061231a82612c4c565b604082019050919050565b6000612332603e836127d6565b915061233d82612c9b565b604082019050919050565b60006123556020836127d6565b915061236082612cea565b602082019050919050565b60006123786018836127d6565b915061238382612d13565b602082019050919050565b600061239b6021836127d6565b91506123a682612d3c565b604082019050919050565b60006123be602e836127d6565b91506123c982612d8b565b604082019050919050565b600060408301600083015184820360008601526123f182826121b0565b9150506020830151848203602086015261240b82826121b0565b9150508091505092915050565b61242181612917565b82525050565b60006124338285612222565b915061243f8284612222565b91508190509392505050565b6000602082019050612460600083018461212c565b92915050565b600060808201905061247b600083018761212c565b612488602083018661212c565b6124956040830185612418565b81810360608301526124a7818461214a565b905095945050505050565b60006060820190506124c7600083018761212c565b6124d46020830186612418565b81810360408301526124e7818486612183565b905095945050505050565b6000602082019050612507600083018461213b565b92915050565b6000602082019050818103600083015261252781846121e9565b905092915050565b6000604082019050818103600083015261254981856121e9565b9050818103602083015261255d81846121e9565b90509392505050565b6000606082019050818103600083015261258081866121e9565b905061258f6020830185612418565b81810360408301526125a181846121e9565b9050949350505050565b600060208201905081810360008301526125c481612253565b9050919050565b600060208201905081810360008301526125e481612276565b9050919050565b6000602082019050818103600083015261260481612299565b9050919050565b60006020820190508181036000830152612624816122bc565b9050919050565b60006020820190508181036000830152612644816122df565b9050919050565b6000602082019050818103600083015261266481612302565b9050919050565b6000602082019050818103600083015261268481612325565b9050919050565b600060208201905081810360008301526126a481612348565b9050919050565b600060208201905081810360008301526126c48161236b565b9050919050565b600060208201905081810360008301526126e48161238e565b9050919050565b60006020820190508181036000830152612704816123b1565b9050919050565b6000602082019050818103600083015261272581846123d4565b905092915050565b60006020820190506127426000830184612418565b92915050565b6000612752612763565b905061275e8282612995565b919050565b6000604051905090565b600067ffffffffffffffff82111561278857612787612acd565b5b61279182612afc565b9050602081019050919050565b600081519050919050565b600081519050919050565b600082825260208201905092915050565b600082825260208201905092915050565b600082825260208201905092915050565b600081905092915050565b60006127fd82612917565b915061280883612917565b9250827fffffffffffffffffffffffffffffffffffffffffffffffffffffffffffffffff0382111561283d5761283c612a40565b5b828201905092915050565b600061285382612917565b915061285e83612917565b92508261286e5761286d612a6f565b5b828204905092915050565b600061288482612917565b915061288f83612917565b9250828210156128a2576128a1612a40565b5b828203905092915050565b60006128b8826128f7565b9050919050565b60008115159050919050565b60007fffffffff0000000000000000000000000000000000000000000000000000000082169050919050565b600073ffffffffffffffffffffffffffffffffffffffff82169050919050565b6000819050919050565b82818337600083830152505050565b60005b8381101561294e578082015181840152602081019050612933565b8381111561295d576000848401525b50505050565b6000600282049050600182168061297b57607f821691505b6020821081141561298f5761298e612a9e565b5b50919050565b61299e82612afc565b810181811067ffffffffffffffff821117156129bd576129bc612acd565b5b80604052505050565b60006129d182612917565b91507fffffffffffffffffffffffffffffffffffffffffffffffffffffffffffffffff821415612a0457612a03612a40565b5b600182019050919050565b6000612a1a82612917565b9150612a2583612917565b925082612a3557612a34612a6f565b5b828206905092915050565b7f4e487b7100000000000000000000000000000000000000000000000000000000600052601160045260246000fd5b7f4e487b7100000000000000000000000000000000000000000000000000000000600052601260045260246000fd5b7f4e487b7100000000000000000000000000000000000000000000000000000000600052602260045260246000fd5b7f4e487b7100000000000000000000000000000000000000000000000000000000600052604160045260246000fd5b6000601f19601f8301169050919050565b7f4552433732313a207472616e7366657220746f206e6f6e20455243373231526560008201527f63656976657220696d706c656d656e7465720000000000000000000000000000602082015250565b7f4552433732313a207472616e736665722066726f6d20696e636f72726563742060008201527f6f776e6572000000000000000000000000000000000000000000000000000000602082015250565b7f4552433732313a20746f6b656e20616c7265616479206d696e74656400000000600082015250565b7f4552433732313a207472616e7366657220746f20746865207a65726f2061646460008201527f7265737300000000000000000000000000000000000000000000000000000000602082015250565b7f4552433732313a20617070726f766520746f2063616c6c657200000000000000600082015250565b7f4552433732313a2061646472657373207a65726f206973206e6f74206120766160008201527f6c6964206f776e65720000000000000000000000000000000000000000000000602082015250565b7f4552433732313a20617070726f76652063616c6c6572206973206e6f7420746f60008201527f6b656e206f776e6572206e6f7220617070726f76656420666f7220616c6c0000602082015250565b7f4552433732313a206d696e7420746f20746865207a65726f2061646472657373600082015250565b7f4552433732313a20696e76616c696420746f6b656e2049440000000000000000600082015250565b7f4552433732313a20617070726f76616c20746f2063757272656e74206f776e6560008201527f7200000000000000000000000000000000000000000000000000000000000000602082015250565b7f4552433732313a2063616c6c6572206973206e6f7420746f6b656e206f776e6560008201527f72206e6f7220617070726f766564000000000000000000000000000000000000602082015250565b612de3816128ad565b8114612dee57600080fd5b50565b612dfa816128bf565b8114612e0557600080fd5b50565b612e11816128cb565b8114612e1c57600080fd5b50565b612e2881612917565b8114612e3357600080fd5b5056fe4d696e746564204e465420772f20746f6b656e496420257320616e642070726f647563744944202573a2646970667358221220c196608c4223190f37d82243219b98f02ab05c513653867f274334949d0714bc64736f6c63430008040033",
  "linkReferences": {},
  "deployedLinkReferences": {}
}