{
  "_format": "hh-sol-artifact-1",
  "contractName": "GateKeeper",
  "sourceName": "contracts/GateKeeper.sol",
  "abi": [
    {
      "inputs": [],
      "stateMutability": "nonpayable",
      "type": "constructor"
    },
    {
      "anonymous": false,
      "inputs": [
        {
          "indexed": true,
          "internalType": "address",
          "name": "owner",
          "type": "address"
        },
        {
          "indexed": true,
          "internalType": "address",
          "name": "approved",
          "type": "address"
        },
        {
          "indexed": true,
          "internalType": "uint256",
          "name": "tokenId",
          "type": "uint256"
        }
      ],
      "name": "Approval",
      "type": "event"
    },
    {
      "anonymous": false,
      "inputs": [
        {
          "indexed": true,
          "internalType": "address",
          "name": "owner",
          "type": "address"
        },
        {
          "indexed": true,
          "internalType": "address",
          "name": "operator",
          "type": "address"
        },
        {
          "indexed": false,
          "internalType": "bool",
          "name": "approved",
          "type": "bool"
        }
      ],
      "name": "ApprovalForAll",
      "type": "event"
    },
    {
      "anonymous": false,
      "inputs": [
        {
          "indexed": false,
          "internalType": "address",
          "name": "sender",
          "type": "address"
        },
        {
          "indexed": false,
          "internalType": "uint256",
          "name": "tokenId",
          "type": "uint256"
        },
        {
          "indexed": false,
          "internalType": "string",
          "name": "productId",
          "type": "string"
        }
      ],
      "name": "LicenseMinted",
      "type": "event"
    },
    {
      "anonymous": false,
      "inputs": [
        {
          "indexed": true,
          "internalType": "address",
          "name": "from",
          "type": "address"
        },
        {
          "indexed": true,
          "internalType": "address",
          "name": "to",
          "type": "address"
        },
        {
          "indexed": true,
          "internalType": "uint256",
          "name": "tokenId",
          "type": "uint256"
        }
      ],
      "name": "Transfer",
      "type": "event"
    },
    {
      "inputs": [
        {
          "internalType": "address",
          "name": "to",
          "type": "address"
        },
        {
          "internalType": "uint256",
          "name": "tokenId",
          "type": "uint256"
        }
      ],
      "name": "approve",
      "outputs": [],
      "stateMutability": "nonpayable",
      "type": "function"
    },
    {
      "inputs": [
        {
          "internalType": "address",
          "name": "owner",
          "type": "address"
        }
      ],
      "name": "balanceOf",
      "outputs": [
        {
          "internalType": "uint256",
          "name": "",
          "type": "uint256"
        }
      ],
      "stateMutability": "view",
      "type": "function"
    },
    {
      "inputs": [
        {
          "internalType": "uint256",
          "name": "tokenId",
          "type": "uint256"
        }
      ],
      "name": "getApproved",
      "outputs": [
        {
          "internalType": "address",
          "name": "",
          "type": "address"
        }
      ],
      "stateMutability": "view",
      "type": "function"
    },
    {
      "inputs": [],
      "name": "getUserLicenses",
      "outputs": [
        {
          "components": [
            {
              "internalType": "string",
              "name": "productID",
              "type": "string"
            },
            {
              "internalType": "string",
              "name": "productLicenseKey",
              "type": "string"
            }
          ],
          "internalType": "struct GateKeeper.LicenseAttributes",
          "name": "",
          "type": "tuple"
        }
      ],
      "stateMutability": "view",
      "type": "function"
    },
    {
      "inputs": [
        {
          "internalType": "address",
          "name": "owner",
          "type": "address"
        },
        {
          "internalType": "address",
          "name": "operator",
          "type": "address"
        }
      ],
      "name": "isApprovedForAll",
      "outputs": [
        {
          "internalType": "bool",
          "name": "",
          "type": "bool"
        }
      ],
      "stateMutability": "view",
      "type": "function"
    },
    {
      "inputs": [
        {
          "internalType": "string",
          "name": "_productId",
          "type": "string"
        },
        {
          "internalType": "string",
          "name": "_licenseKey",
          "type": "string"
        }
      ],
      "name": "mintLicenseNFT",
      "outputs": [],
      "stateMutability": "nonpayable",
      "type": "function"
    },
    {
      "inputs": [],
      "name": "name",
      "outputs": [
        {
          "internalType": "string",
          "name": "",
          "type": "string"
        }
      ],
      "stateMutability": "view",
      "type": "function"
    },
    {
      "inputs": [
        {
          "internalType": "uint256",
          "name": "",
          "type": "uint256"
        }
      ],
      "name": "nftHolderAttributes",
      "outputs": [
        {
          "internalType": "string",
          "name": "productID",
          "type": "string"
        },
        {
          "internalType": "string",
          "name": "productLicenseKey",
          "type": "string"
        }
      ],
      "stateMutability": "view",
      "type": "function"
    },
    {
      "inputs": [
        {
          "internalType": "address",
          "name": "",
          "type": "address"
        }
      ],
      "name": "nftHolders",
      "outputs": [
        {
          "internalType": "uint256",
          "name": "",
          "type": "uint256"
        }
      ],
      "stateMutability": "view",
      "type": "function"
    },
    {
      "inputs": [
        {
          "internalType": "uint256",
          "name": "tokenId",
          "type": "uint256"
        }
      ],
      "name": "ownerOf",
      "outputs": [
        {
          "internalType": "address",
          "name": "",
          "type": "address"
        }
      ],
      "stateMutability": "view",
      "type": "function"
    },
    {
      "inputs": [
        {
          "internalType": "address",
          "name": "from",
          "type": "address"
        },
        {
          "internalType": "address",
          "name": "to",
          "type": "address"
        },
        {
          "internalType": "uint256",
          "name": "tokenId",
          "type": "uint256"
        }
      ],
      "name": "safeTransferFrom",
      "outputs": [],
      "stateMutability": "nonpayable",
      "type": "function"
    },
    {
      "inputs": [
        {
          "internalType": "address",
          "name": "from",
          "type": "address"
        },
        {
          "internalType": "address",
          "name": "to",
          "type": "address"
        },
        {
          "internalType": "uint256",
          "name": "tokenId",
          "type": "uint256"
        },
        {
          "internalType": "bytes",
          "name": "data",
          "type": "bytes"
        }
      ],
      "name": "safeTransferFrom",
      "outputs": [],
      "stateMutability": "nonpayable",
      "type": "function"
    },
    {
      "inputs": [
        {
          "internalType": "address",
          "name": "operator",
          "type": "address"
        },
        {
          "internalType": "bool",
          "name": "approved",
          "type": "bool"
        }
      ],
      "name": "setApprovalForAll",
      "outputs": [],
      "stateMutability": "nonpayable",
      "type": "function"
    },
    {
      "inputs": [
        {
          "internalType": "bytes4",
          "name": "interfaceId",
          "type": "bytes4"
        }
      ],
      "name": "supportsInterface",
      "outputs": [
        {
          "internalType": "bool",
          "name": "",
          "type": "bool"
        }
      ],
      "stateMutability": "view",
      "type": "function"
    },
    {
      "inputs": [],
      "name": "symbol",
      "outputs": [
        {
          "internalType": "string",
          "name": "",
          "type": "string"
        }
      ],
      "stateMutability": "view",
      "type": "function"
    },
    {
      "inputs": [
        {
          "internalType": "uint256",
          "name": "tokenId",
          "type": "uint256"
        }
      ],
      "name": "tokenURI",
      "outputs": [
        {
          "internalType": "string",
          "name": "",
          "type": "string"
        }
      ],
      "stateMutability": "view",
      "type": "function"
    },
    {
      "inputs": [
        {
          "internalType": "address",
          "name": "from",
          "type": "address"
        },
        {
          "internalType": "address",
          "name": "to",
          "type": "address"
        },
        {
          "internalType": "uint256",
          "name": "tokenId",
          "type": "uint256"
        }
      ],
      "name": "transferFrom",
      "outputs": [],
      "stateMutability": "nonpayable",
      "type": "function"
    }
  ],
  "bytecode": "0x60806040523480156200001157600080fd5b506040518060400160405280600a81526020017f476174654b6565706572000000000000000000000000000000000000000000008152506040518060400160405280600781526020017f4c6963656e736500000000000000000000000000000000000000000000000000815250816000908051906020019062000096929190620000e5565b508060019080519060200190620000af929190620000e5565b505050620000c96008620000cf60201b62000e7f1760201c565b620001fa565b6001816000016000828254019250508190555050565b828054620000f39062000195565b90600052602060002090601f01602090048101928262000117576000855562000163565b82601f106200013257805160ff191683800117855562000163565b8280016001018555821562000163579182015b828111156200016257825182559160200191906001019062000145565b5b50905062000172919062000176565b5090565b5b808211156200019157600081600090555060010162000177565b5090565b60006002820490506001821680620001ae57607f821691505b60208210811415620001c557620001c4620001cb565b5b50919050565b7f4e487b7100000000000000000000000000000000000000000000000000000000600052602260045260246000fd5b612ddc806200020a6000396000f3fe608060405234801561001057600080fd5b506004361061010b5760003560e01c80636352211e116100a257806398da4c951161007157806398da4c95146102ca578063a22cb465146102fb578063b88d4fde14610317578063c87b56dd14610333578063e985e9c5146103635761010b565b80636352211e1461021c57806370a082311461024c5780637df124a11461027c57806395d89b41146102ac5761010b565b80630eecbe79116100de5780630eecbe79146101aa57806323b872dd146101c657806331c91735146101e257806342842e0e146102005761010b565b806301ffc9a71461011057806306fdde0314610140578063081812fc1461015e578063095ea7b31461018e575b600080fd5b61012a60048036038101906101259190611f8a565b610393565b6040516101379190612408565b60405180910390f35b610148610475565b6040516101559190612423565b60405180910390f35b61017860048036038101906101739190612048565b610507565b6040516101859190612363565b60405180910390f35b6101a860048036038101906101a39190611f4e565b61054d565b005b6101c460048036038101906101bf9190611fdc565b610665565b005b6101e060048036038101906101db9190611e48565b610793565b005b6101ea6107f3565b6040516101f79190612621565b60405180910390f35b61021a60048036038101906102159190611e48565b6109a3565b005b61023660048036038101906102319190612048565b6109c3565b6040516102439190612363565b60405180910390f35b61026660048036038101906102619190611de3565b610a75565b6040516102739190612643565b60405180910390f35b61029660048036038101906102919190611de3565b610b2d565b6040516102a39190612643565b60405180910390f35b6102b4610b45565b6040516102c19190612423565b60405180910390f35b6102e460048036038101906102df9190612048565b610bd7565b6040516102f2929190612445565b60405180910390f35b61031560048036038101906103109190611f12565b610d0b565b005b610331600480360381019061032c9190611e97565b610d21565b005b61034d60048036038101906103489190612048565b610d83565b60405161035a9190612423565b60405180910390f35b61037d60048036038101906103789190611e0c565b610deb565b60405161038a9190612408565b60405180910390f35b60007f80ac58cd000000000000000000000000000000000000000000000000000000007bffffffffffffffffffffffffffffffffffffffffffffffffffffffff1916827bffffffffffffffffffffffffffffffffffffffffffffffffffffffff1916148061045e57507f5b5e139f000000000000000000000000000000000000000000000000000000007bffffffffffffffffffffffffffffffffffffffffffffffffffffffff1916827bffffffffffffffffffffffffffffffffffffffffffffffffffffffff1916145b8061046e575061046d82610e95565b5b9050919050565b606060008054610484906128aa565b80601f01602080910402602001604051908101604052809291908181526020018280546104b0906128aa565b80156104fd5780601f106104d2576101008083540402835291602001916104fd565b820191906000526020600020905b8154815290600101906020018083116104e057829003601f168201915b5050505050905090565b600061051282610eff565b6004600083815260200190815260200160002060009054906101000a900473ffffffffffffffffffffffffffffffffffffffff169050919050565b6000610558826109c3565b90508073ffffffffffffffffffffffffffffffffffffffff168373ffffffffffffffffffffffffffffffffffffffff1614156105c9576040517f08c379a00000000000000000000000000000000000000000000000000000000081526004016105c0906125e1565b60405180910390fd5b8073ffffffffffffffffffffffffffffffffffffffff166105e8610f4a565b73ffffffffffffffffffffffffffffffffffffffff161480610617575061061681610611610f4a565b610deb565b5b610656576040517f08c379a000000000000000000000000000000000000000000000000000000000815260040161064d90612581565b60405180910390fd5b6106608383610f52565b505050565b6000610671600861100b565b905061067d3382611019565b6040518060400160405280848152602001838152506006600083815260200190815260200160002060008201518160000190805190602001906106c1929190611bed565b5060208201518160010190805190602001906106de929190611bed565b50905050610705604051806060016040528060298152602001612d7e602991398285611037565b80600760003373ffffffffffffffffffffffffffffffffffffffff1673ffffffffffffffffffffffffffffffffffffffff168152602001908152602001600020819055506107536008610e7f565b7fa39f3c4b27288510d97b00a0ec9e2a78721796147af0e1c075f58579e995c748338285604051610786939291906123ca565b60405180910390a1505050565b6107a461079e610f4a565b826110d6565b6107e3576040517f08c379a00000000000000000000000000000000000000000000000000000000081526004016107da90612601565b60405180910390fd5b6107ee83838361116b565b505050565b6107fb611c73565b6000600760003373ffffffffffffffffffffffffffffffffffffffff1673ffffffffffffffffffffffffffffffffffffffff16815260200190815260200160002054905060008111156109925760066000828152602001908152602001600020604051806040016040529081600082018054610876906128aa565b80601f01602080910402602001604051908101604052809291908181526020018280546108a2906128aa565b80156108ef5780601f106108c4576101008083540402835291602001916108ef565b820191906000526020600020905b8154815290600101906020018083116108d257829003601f168201915b50505050508152602001600182018054610908906128aa565b80601f0160208091040260200160405190810160405280929190818152602001828054610934906128aa565b80156109815780601f1061095657610100808354040283529160200191610981565b820191906000526020600020905b81548152906001019060200180831161096457829003601f168201915b5050505050815250509150506109a0565b61099a611c73565b80925050505b90565b6109be83838360405180602001604052806000815250610d21565b505050565b6000806002600084815260200190815260200160002060009054906101000a900473ffffffffffffffffffffffffffffffffffffffff169050600073ffffffffffffffffffffffffffffffffffffffff168173ffffffffffffffffffffffffffffffffffffffff161415610a6c576040517f08c379a0000000000000000000000000000000000000000000000000000000008152600401610a63906125c1565b60405180910390fd5b80915050919050565b60008073ffffffffffffffffffffffffffffffffffffffff168273ffffffffffffffffffffffffffffffffffffffff161415610ae6576040517f08c379a0000000000000000000000000000000000000000000000000000000008152600401610add90612561565b60405180910390fd5b600360008373ffffffffffffffffffffffffffffffffffffffff1673ffffffffffffffffffffffffffffffffffffffff168152602001908152602001600020549050919050565b60076020528060005260406000206000915090505481565b606060018054610b54906128aa565b80601f0160208091040260200160405190810160405280929190818152602001828054610b80906128aa565b8015610bcd5780601f10610ba257610100808354040283529160200191610bcd565b820191906000526020600020905b815481529060010190602001808311610bb057829003601f168201915b5050505050905090565b6006602052806000526040600020600091509050806000018054610bfa906128aa565b80601f0160208091040260200160405190810160405280929190818152602001828054610c26906128aa565b8015610c735780601f10610c4857610100808354040283529160200191610c73565b820191906000526020600020905b815481529060010190602001808311610c5657829003601f168201915b505050505090806001018054610c88906128aa565b80601f0160208091040260200160405190810160405280929190818152602001828054610cb4906128aa565b8015610d015780601f10610cd657610100808354040283529160200191610d01565b820191906000526020600020905b815481529060010190602001808311610ce457829003601f168201915b5050505050905082565b610d1d610d16610f4a565b83836113d2565b5050565b610d32610d2c610f4a565b836110d6565b610d71576040517f08c379a0000000000000000000000000000000000000000000000000000000008152600401610d6890612601565b60405180910390fd5b610d7d8484848461153f565b50505050565b6060610d8e82610eff565b6000610d9861159b565b90506000815111610db85760405180602001604052806000815250610de3565b80610dc2846115b2565b604051602001610dd392919061233f565b6040516020818303038152906040525b915050919050565b6000600560008473ffffffffffffffffffffffffffffffffffffffff1673ffffffffffffffffffffffffffffffffffffffff16815260200190815260200160002060008373ffffffffffffffffffffffffffffffffffffffff1673ffffffffffffffffffffffffffffffffffffffff16815260200190815260200160002060009054906101000a900460ff16905092915050565b6001816000016000828254019250508190555050565b60007f01ffc9a7000000000000000000000000000000000000000000000000000000007bffffffffffffffffffffffffffffffffffffffffffffffffffffffff1916827bffffffffffffffffffffffffffffffffffffffffffffffffffffffff1916149050919050565b610f088161175f565b610f47576040517f08c379a0000000000000000000000000000000000000000000000000000000008152600401610f3e906125c1565b60405180910390fd5b50565b600033905090565b816004600083815260200190815260200160002060006101000a81548173ffffffffffffffffffffffffffffffffffffffff021916908373ffffffffffffffffffffffffffffffffffffffff160217905550808273ffffffffffffffffffffffffffffffffffffffff16610fc5836109c3565b73ffffffffffffffffffffffffffffffffffffffff167f8c5be1e5ebec7d5bd14f71427d1e84f3dd0314c0f7b2291e5b200ac8c7c3b92560405160405180910390a45050565b600081600001549050919050565b6110338282604051806020016040528060008152506117cb565b5050565b6110d183838360405160240161104f9392919061247c565b6040516020818303038152906040527fa3f5c739000000000000000000000000000000000000000000000000000000007bffffffffffffffffffffffffffffffffffffffffffffffffffffffff19166020820180517bffffffffffffffffffffffffffffffffffffffffffffffffffffffff8381831617835250505050611826565b505050565b6000806110e2836109c3565b90508073ffffffffffffffffffffffffffffffffffffffff168473ffffffffffffffffffffffffffffffffffffffff16148061112457506111238185610deb565b5b8061116257508373ffffffffffffffffffffffffffffffffffffffff1661114a84610507565b73ffffffffffffffffffffffffffffffffffffffff16145b91505092915050565b8273ffffffffffffffffffffffffffffffffffffffff1661118b826109c3565b73ffffffffffffffffffffffffffffffffffffffff16146111e1576040517f08c379a00000000000000000000000000000000000000000000000000000000081526004016111d8906124e1565b60405180910390fd5b600073ffffffffffffffffffffffffffffffffffffffff168273ffffffffffffffffffffffffffffffffffffffff161415611251576040517f08c379a000000000000000000000000000000000000000000000000000000000815260040161124890612521565b60405180910390fd5b61125c83838361184f565b611267600082610f52565b6001600360008573ffffffffffffffffffffffffffffffffffffffff1673ffffffffffffffffffffffffffffffffffffffff16815260200190815260200160002060008282546112b791906127c0565b925050819055506001600360008473ffffffffffffffffffffffffffffffffffffffff1673ffffffffffffffffffffffffffffffffffffffff168152602001908152602001600020600082825461130e9190612739565b92505081905550816002600083815260200190815260200160002060006101000a81548173ffffffffffffffffffffffffffffffffffffffff021916908373ffffffffffffffffffffffffffffffffffffffff160217905550808273ffffffffffffffffffffffffffffffffffffffff168473ffffffffffffffffffffffffffffffffffffffff167fddf252ad1be2c89b69c2b068fc378daa952ba7f163c4a11628f55a4df523b3ef60405160405180910390a46113cd838383611854565b505050565b8173ffffffffffffffffffffffffffffffffffffffff168373ffffffffffffffffffffffffffffffffffffffff161415611441576040517f08c379a000000000000000000000000000000000000000000000000000000000815260040161143890612541565b60405180910390fd5b80600560008573ffffffffffffffffffffffffffffffffffffffff1673ffffffffffffffffffffffffffffffffffffffff16815260200190815260200160002060008473ffffffffffffffffffffffffffffffffffffffff1673ffffffffffffffffffffffffffffffffffffffff16815260200190815260200160002060006101000a81548160ff0219169083151502179055508173ffffffffffffffffffffffffffffffffffffffff168373ffffffffffffffffffffffffffffffffffffffff167f17307eab39ab6107e8899845ad3d59bd9653f200f220920489ca2b5937696c31836040516115329190612408565b60405180910390a3505050565b61154a84848461116b565b61155684848484611859565b611595576040517f08c379a000000000000000000000000000000000000000000000000000000000815260040161158c906124c1565b60405180910390fd5b50505050565b606060405180602001604052806000815250905090565b606060008214156115fa576040518060400160405280600181526020017f3000000000000000000000000000000000000000000000000000000000000000815250905061175a565b600082905060005b6000821461162c5780806116159061290d565b915050600a82611625919061278f565b9150611602565b60008167ffffffffffffffff81111561166e577f4e487b7100000000000000000000000000000000000000000000000000000000600052604160045260246000fd5b6040519080825280601f01601f1916602001820160405280156116a05781602001600182028036833780820191505090505b5090505b60008514611753576001826116b991906127c0565b9150600a856116c89190612956565b60306116d49190612739565b60f81b818381518110611710577f4e487b7100000000000000000000000000000000000000000000000000000000600052603260045260246000fd5b60200101907effffffffffffffffffffffffffffffffffffffffffffffffffffffffffffff1916908160001a905350600a8561174c919061278f565b94506116a4565b8093505050505b919050565b60008073ffffffffffffffffffffffffffffffffffffffff166002600084815260200190815260200160002060009054906101000a900473ffffffffffffffffffffffffffffffffffffffff1673ffffffffffffffffffffffffffffffffffffffff1614159050919050565b6117d583836119f0565b6117e26000848484611859565b611821576040517f08c379a0000000000000000000000000000000000000000000000000000000008152600401611818906124c1565b60405180910390fd5b505050565b60008151905060006a636f6e736f6c652e6c6f679050602083016000808483855afa5050505050565b505050565b505050565b600061187a8473ffffffffffffffffffffffffffffffffffffffff16611bca565b156119e3578373ffffffffffffffffffffffffffffffffffffffff1663150b7a026118a3610f4a565b8786866040518563ffffffff1660e01b81526004016118c5949392919061237e565b602060405180830381600087803b1580156118df57600080fd5b505af192505050801561191057506040513d601f19601f8201168201806040525081019061190d9190611fb3565b60015b611993573d8060008114611940576040519150601f19603f3d011682016040523d82523d6000602084013e611945565b606091505b5060008151141561198b576040517f08c379a0000000000000000000000000000000000000000000000000000000008152600401611982906124c1565b60405180910390fd5b805181602001fd5b63150b7a0260e01b7bffffffffffffffffffffffffffffffffffffffffffffffffffffffff1916817bffffffffffffffffffffffffffffffffffffffffffffffffffffffff1916149150506119e8565b600190505b949350505050565b600073ffffffffffffffffffffffffffffffffffffffff168273ffffffffffffffffffffffffffffffffffffffff161415611a60576040517f08c379a0000000000000000000000000000000000000000000000000000000008152600401611a57906125a1565b60405180910390fd5b611a698161175f565b15611aa9576040517f08c379a0000000000000000000000000000000000000000000000000000000008152600401611aa090612501565b60405180910390fd5b611ab56000838361184f565b6001600360008473ffffffffffffffffffffffffffffffffffffffff1673ffffffffffffffffffffffffffffffffffffffff1681526020019081526020016000206000828254611b059190612739565b92505081905550816002600083815260200190815260200160002060006101000a81548173ffffffffffffffffffffffffffffffffffffffff021916908373ffffffffffffffffffffffffffffffffffffffff160217905550808273ffffffffffffffffffffffffffffffffffffffff16600073ffffffffffffffffffffffffffffffffffffffff167fddf252ad1be2c89b69c2b068fc378daa952ba7f163c4a11628f55a4df523b3ef60405160405180910390a4611bc660008383611854565b5050565b6000808273ffffffffffffffffffffffffffffffffffffffff163b119050919050565b828054611bf9906128aa565b90600052602060002090601f016020900481019282611c1b5760008555611c62565b82601f10611c3457805160ff1916838001178555611c62565b82800160010185558215611c62579182015b82811115611c61578251825591602001919060010190611c46565b5b509050611c6f9190611c8d565b5090565b604051806040016040528060608152602001606081525090565b5b80821115611ca6576000816000905550600101611c8e565b5090565b6000611cbd611cb884612683565b61265e565b905082815260208101848484011115611cd557600080fd5b611ce0848285612868565b509392505050565b6000611cfb611cf6846126b4565b61265e565b905082815260208101848484011115611d1357600080fd5b611d1e848285612868565b509392505050565b600081359050611d3581612d21565b92915050565b600081359050611d4a81612d38565b92915050565b600081359050611d5f81612d4f565b92915050565b600081519050611d7481612d4f565b92915050565b600082601f830112611d8b57600080fd5b8135611d9b848260208601611caa565b91505092915050565b600082601f830112611db557600080fd5b8135611dc5848260208601611ce8565b91505092915050565b600081359050611ddd81612d66565b92915050565b600060208284031215611df557600080fd5b6000611e0384828501611d26565b91505092915050565b60008060408385031215611e1f57600080fd5b6000611e2d85828601611d26565b9250506020611e3e85828601611d26565b9150509250929050565b600080600060608486031215611e5d57600080fd5b6000611e6b86828701611d26565b9350506020611e7c86828701611d26565b9250506040611e8d86828701611dce565b9150509250925092565b60008060008060808587031215611ead57600080fd5b6000611ebb87828801611d26565b9450506020611ecc87828801611d26565b9350506040611edd87828801611dce565b925050606085013567ffffffffffffffff811115611efa57600080fd5b611f0687828801611d7a565b91505092959194509250565b60008060408385031215611f2557600080fd5b6000611f3385828601611d26565b9250506020611f4485828601611d3b565b9150509250929050565b60008060408385031215611f6157600080fd5b6000611f6f85828601611d26565b9250506020611f8085828601611dce565b9150509250929050565b600060208284031215611f9c57600080fd5b6000611faa84828501611d50565b91505092915050565b600060208284031215611fc557600080fd5b6000611fd384828501611d65565b91505092915050565b60008060408385031215611fef57600080fd5b600083013567ffffffffffffffff81111561200957600080fd5b61201585828601611da4565b925050602083013567ffffffffffffffff81111561203257600080fd5b61203e85828601611da4565b9150509250929050565b60006020828403121561205a57600080fd5b600061206884828501611dce565b91505092915050565b61207a816127f4565b82525050565b61208981612806565b82525050565b600061209a826126e5565b6120a481856126fb565b93506120b4818560208601612877565b6120bd81612a43565b840191505092915050565b60006120d3826126f0565b6120dd818561270c565b93506120ed818560208601612877565b6120f681612a43565b840191505092915050565b600061210c826126f0565b612116818561271d565b9350612126818560208601612877565b61212f81612a43565b840191505092915050565b6000612145826126f0565b61214f818561272e565b935061215f818560208601612877565b80840191505092915050565b600061217860328361271d565b915061218382612a54565b604082019050919050565b600061219b60258361271d565b91506121a682612aa3565b604082019050919050565b60006121be601c8361271d565b91506121c982612af2565b602082019050919050565b60006121e160248361271d565b91506121ec82612b1b565b604082019050919050565b600061220460198361271d565b915061220f82612b6a565b602082019050919050565b600061222760298361271d565b915061223282612b93565b604082019050919050565b600061224a603e8361271d565b915061225582612be2565b604082019050919050565b600061226d60208361271d565b915061227882612c31565b602082019050919050565b600061229060188361271d565b915061229b82612c5a565b602082019050919050565b60006122b360218361271d565b91506122be82612c83565b604082019050919050565b60006122d6602e8361271d565b91506122e182612cd2565b604082019050919050565b6000604083016000830151848203600086015261230982826120c8565b9150506020830151848203602086015261232382826120c8565b9150508091505092915050565b6123398161285e565b82525050565b600061234b828561213a565b9150612357828461213a565b91508190509392505050565b60006020820190506123786000830184612071565b92915050565b60006080820190506123936000830187612071565b6123a06020830186612071565b6123ad6040830185612330565b81810360608301526123bf818461208f565b905095945050505050565b60006060820190506123df6000830186612071565b6123ec6020830185612330565b81810360408301526123fe8184612101565b9050949350505050565b600060208201905061241d6000830184612080565b92915050565b6000602082019050818103600083015261243d8184612101565b905092915050565b6000604082019050818103600083015261245f8185612101565b905081810360208301526124738184612101565b90509392505050565b600060608201905081810360008301526124968186612101565b90506124a56020830185612330565b81810360408301526124b78184612101565b9050949350505050565b600060208201905081810360008301526124da8161216b565b9050919050565b600060208201905081810360008301526124fa8161218e565b9050919050565b6000602082019050818103600083015261251a816121b1565b9050919050565b6000602082019050818103600083015261253a816121d4565b9050919050565b6000602082019050818103600083015261255a816121f7565b9050919050565b6000602082019050818103600083015261257a8161221a565b9050919050565b6000602082019050818103600083015261259a8161223d565b9050919050565b600060208201905081810360008301526125ba81612260565b9050919050565b600060208201905081810360008301526125da81612283565b9050919050565b600060208201905081810360008301526125fa816122a6565b9050919050565b6000602082019050818103600083015261261a816122c9565b9050919050565b6000602082019050818103600083015261263b81846122ec565b905092915050565b60006020820190506126586000830184612330565b92915050565b6000612668612679565b905061267482826128dc565b919050565b6000604051905090565b600067ffffffffffffffff82111561269e5761269d612a14565b5b6126a782612a43565b9050602081019050919050565b600067ffffffffffffffff8211156126cf576126ce612a14565b5b6126d882612a43565b9050602081019050919050565b600081519050919050565b600081519050919050565b600082825260208201905092915050565b600082825260208201905092915050565b600082825260208201905092915050565b600081905092915050565b60006127448261285e565b915061274f8361285e565b9250827fffffffffffffffffffffffffffffffffffffffffffffffffffffffffffffffff0382111561278457612783612987565b5b828201905092915050565b600061279a8261285e565b91506127a58361285e565b9250826127b5576127b46129b6565b5b828204905092915050565b60006127cb8261285e565b91506127d68361285e565b9250828210156127e9576127e8612987565b5b828203905092915050565b60006127ff8261283e565b9050919050565b60008115159050919050565b60007fffffffff0000000000000000000000000000000000000000000000000000000082169050919050565b600073ffffffffffffffffffffffffffffffffffffffff82169050919050565b6000819050919050565b82818337600083830152505050565b60005b8381101561289557808201518184015260208101905061287a565b838111156128a4576000848401525b50505050565b600060028204905060018216806128c257607f821691505b602082108114156128d6576128d56129e5565b5b50919050565b6128e582612a43565b810181811067ffffffffffffffff8211171561290457612903612a14565b5b80604052505050565b60006129188261285e565b91507fffffffffffffffffffffffffffffffffffffffffffffffffffffffffffffffff82141561294b5761294a612987565b5b600182019050919050565b60006129618261285e565b915061296c8361285e565b92508261297c5761297b6129b6565b5b828206905092915050565b7f4e487b7100000000000000000000000000000000000000000000000000000000600052601160045260246000fd5b7f4e487b7100000000000000000000000000000000000000000000000000000000600052601260045260246000fd5b7f4e487b7100000000000000000000000000000000000000000000000000000000600052602260045260246000fd5b7f4e487b7100000000000000000000000000000000000000000000000000000000600052604160045260246000fd5b6000601f19601f8301169050919050565b7f4552433732313a207472616e7366657220746f206e6f6e20455243373231526560008201527f63656976657220696d706c656d656e7465720000000000000000000000000000602082015250565b7f4552433732313a207472616e736665722066726f6d20696e636f72726563742060008201527f6f776e6572000000000000000000000000000000000000000000000000000000602082015250565b7f4552433732313a20746f6b656e20616c7265616479206d696e74656400000000600082015250565b7f4552433732313a207472616e7366657220746f20746865207a65726f2061646460008201527f7265737300000000000000000000000000000000000000000000000000000000602082015250565b7f4552433732313a20617070726f766520746f2063616c6c657200000000000000600082015250565b7f4552433732313a2061646472657373207a65726f206973206e6f74206120766160008201527f6c6964206f776e65720000000000000000000000000000000000000000000000602082015250565b7f4552433732313a20617070726f76652063616c6c6572206973206e6f7420746f60008201527f6b656e206f776e6572206e6f7220617070726f76656420666f7220616c6c0000602082015250565b7f4552433732313a206d696e7420746f20746865207a65726f2061646472657373600082015250565b7f4552433732313a20696e76616c696420746f6b656e2049440000000000000000600082015250565b7f4552433732313a20617070726f76616c20746f2063757272656e74206f776e6560008201527f7200000000000000000000000000000000000000000000000000000000000000602082015250565b7f4552433732313a2063616c6c6572206973206e6f7420746f6b656e206f776e6560008201527f72206e6f7220617070726f766564000000000000000000000000000000000000602082015250565b612d2a816127f4565b8114612d3557600080fd5b50565b612d4181612806565b8114612d4c57600080fd5b50565b612d5881612812565b8114612d6357600080fd5b50565b612d6f8161285e565b8114612d7a57600080fd5b5056fe4d696e746564204e465420772f20746f6b656e496420257320616e642070726f647563744944202573a2646970667358221220c805f361fec6e5c7ea39116d90dfb9da535824941451cab773a417d46a5a760364736f6c63430008040033",
  "linkReferences": {},
  "deployedLinkReferences": {}
}