{
  "_format": "hh-sol-artifact-1",
  "contractName": "GateKeeper",
  "sourceName": "contracts/GateKeeper.sol",
  "abi": [
    {
      "inputs": [],
      "stateMutability": "nonpayable",
      "type": "constructor"
    },
    {
      "anonymous": false,
      "inputs": [
        {
          "indexed": true,
          "internalType": "address",
          "name": "owner",
          "type": "address"
        },
        {
          "indexed": true,
          "internalType": "address",
          "name": "approved",
          "type": "address"
        },
        {
          "indexed": true,
          "internalType": "uint256",
          "name": "tokenId",
          "type": "uint256"
        }
      ],
      "name": "Approval",
      "type": "event"
    },
    {
      "anonymous": false,
      "inputs": [
        {
          "indexed": true,
          "internalType": "address",
          "name": "owner",
          "type": "address"
        },
        {
          "indexed": true,
          "internalType": "address",
          "name": "operator",
          "type": "address"
        },
        {
          "indexed": false,
          "internalType": "bool",
          "name": "approved",
          "type": "bool"
        }
      ],
      "name": "ApprovalForAll",
      "type": "event"
    },
    {
      "anonymous": false,
      "inputs": [
        {
          "indexed": false,
          "internalType": "address",
          "name": "sender",
          "type": "address"
        },
        {
          "indexed": false,
          "internalType": "uint256",
          "name": "tokenId",
          "type": "uint256"
        },
        {
          "indexed": false,
          "internalType": "string",
          "name": "productId",
          "type": "string"
        }
      ],
      "name": "LicenseMinted",
      "type": "event"
    },
    {
      "anonymous": false,
      "inputs": [
        {
          "indexed": true,
          "internalType": "address",
          "name": "from",
          "type": "address"
        },
        {
          "indexed": true,
          "internalType": "address",
          "name": "to",
          "type": "address"
        },
        {
          "indexed": true,
          "internalType": "uint256",
          "name": "tokenId",
          "type": "uint256"
        }
      ],
      "name": "Transfer",
      "type": "event"
    },
    {
      "inputs": [
        {
          "internalType": "address",
          "name": "to",
          "type": "address"
        },
        {
          "internalType": "uint256",
          "name": "tokenId",
          "type": "uint256"
        }
      ],
      "name": "approve",
      "outputs": [],
      "stateMutability": "nonpayable",
      "type": "function"
    },
    {
      "inputs": [
        {
          "internalType": "address",
          "name": "owner",
          "type": "address"
        }
      ],
      "name": "balanceOf",
      "outputs": [
        {
          "internalType": "uint256",
          "name": "",
          "type": "uint256"
        }
      ],
      "stateMutability": "view",
      "type": "function"
    },
    {
      "inputs": [
        {
          "internalType": "uint256",
          "name": "tokenId",
          "type": "uint256"
        }
      ],
      "name": "getApproved",
      "outputs": [
        {
          "internalType": "address",
          "name": "",
          "type": "address"
        }
      ],
      "stateMutability": "view",
      "type": "function"
    },
    {
      "inputs": [],
      "name": "getUserLicenses",
      "outputs": [
        {
          "components": [
            {
              "internalType": "string",
              "name": "productID",
              "type": "string"
            },
            {
              "internalType": "string",
              "name": "productLicenseKey",
              "type": "string"
            },
            {
              "internalType": "string",
              "name": "meta",
              "type": "string"
            }
          ],
          "internalType": "struct GateKeeper.LicenseAttributes[]",
          "name": "",
          "type": "tuple[]"
        }
      ],
      "stateMutability": "view",
      "type": "function"
    },
    {
      "inputs": [
        {
          "internalType": "address",
          "name": "owner",
          "type": "address"
        },
        {
          "internalType": "address",
          "name": "operator",
          "type": "address"
        }
      ],
      "name": "isApprovedForAll",
      "outputs": [
        {
          "internalType": "bool",
          "name": "",
          "type": "bool"
        }
      ],
      "stateMutability": "view",
      "type": "function"
    },
    {
      "inputs": [
        {
          "internalType": "string",
          "name": "_productId",
          "type": "string"
        },
        {
          "internalType": "string",
          "name": "_licenseKey",
          "type": "string"
        },
        {
          "internalType": "string",
          "name": "_meta",
          "type": "string"
        }
      ],
      "name": "mintLicenseNFT",
      "outputs": [],
      "stateMutability": "nonpayable",
      "type": "function"
    },
    {
      "inputs": [],
      "name": "name",
      "outputs": [
        {
          "internalType": "string",
          "name": "",
          "type": "string"
        }
      ],
      "stateMutability": "view",
      "type": "function"
    },
    {
      "inputs": [
        {
          "internalType": "uint256",
          "name": "",
          "type": "uint256"
        }
      ],
      "name": "nftHolderAttributes",
      "outputs": [
        {
          "internalType": "string",
          "name": "productID",
          "type": "string"
        },
        {
          "internalType": "string",
          "name": "productLicenseKey",
          "type": "string"
        },
        {
          "internalType": "string",
          "name": "meta",
          "type": "string"
        }
      ],
      "stateMutability": "view",
      "type": "function"
    },
    {
      "inputs": [
        {
          "internalType": "address",
          "name": "",
          "type": "address"
        },
        {
          "internalType": "uint256",
          "name": "",
          "type": "uint256"
        }
      ],
      "name": "nftHolders",
      "outputs": [
        {
          "internalType": "uint256",
          "name": "",
          "type": "uint256"
        }
      ],
      "stateMutability": "view",
      "type": "function"
    },
    {
      "inputs": [
        {
          "internalType": "uint256",
          "name": "tokenId",
          "type": "uint256"
        }
      ],
      "name": "ownerOf",
      "outputs": [
        {
          "internalType": "address",
          "name": "",
          "type": "address"
        }
      ],
      "stateMutability": "view",
      "type": "function"
    },
    {
      "inputs": [
        {
          "internalType": "address",
          "name": "from",
          "type": "address"
        },
        {
          "internalType": "address",
          "name": "to",
          "type": "address"
        },
        {
          "internalType": "uint256",
          "name": "tokenId",
          "type": "uint256"
        }
      ],
      "name": "safeTransferFrom",
      "outputs": [],
      "stateMutability": "nonpayable",
      "type": "function"
    },
    {
      "inputs": [
        {
          "internalType": "address",
          "name": "from",
          "type": "address"
        },
        {
          "internalType": "address",
          "name": "to",
          "type": "address"
        },
        {
          "internalType": "uint256",
          "name": "tokenId",
          "type": "uint256"
        },
        {
          "internalType": "bytes",
          "name": "data",
          "type": "bytes"
        }
      ],
      "name": "safeTransferFrom",
      "outputs": [],
      "stateMutability": "nonpayable",
      "type": "function"
    },
    {
      "inputs": [
        {
          "internalType": "address",
          "name": "operator",
          "type": "address"
        },
        {
          "internalType": "bool",
          "name": "approved",
          "type": "bool"
        }
      ],
      "name": "setApprovalForAll",
      "outputs": [],
      "stateMutability": "nonpayable",
      "type": "function"
    },
    {
      "inputs": [
        {
          "internalType": "bytes4",
          "name": "interfaceId",
          "type": "bytes4"
        }
      ],
      "name": "supportsInterface",
      "outputs": [
        {
          "internalType": "bool",
          "name": "",
          "type": "bool"
        }
      ],
      "stateMutability": "view",
      "type": "function"
    },
    {
      "inputs": [],
      "name": "symbol",
      "outputs": [
        {
          "internalType": "string",
          "name": "",
          "type": "string"
        }
      ],
      "stateMutability": "view",
      "type": "function"
    },
    {
      "inputs": [
        {
          "internalType": "uint256",
          "name": "tokenId",
          "type": "uint256"
        }
      ],
      "name": "tokenURI",
      "outputs": [
        {
          "internalType": "string",
          "name": "",
          "type": "string"
        }
      ],
      "stateMutability": "view",
      "type": "function"
    },
    {
      "inputs": [
        {
          "internalType": "address",
          "name": "from",
          "type": "address"
        },
        {
          "internalType": "address",
          "name": "to",
          "type": "address"
        },
        {
          "internalType": "uint256",
          "name": "tokenId",
          "type": "uint256"
        }
      ],
      "name": "transferFrom",
      "outputs": [],
      "stateMutability": "nonpayable",
      "type": "function"
    }
  ],
  "bytecode": "0x60806040523480156200001157600080fd5b506040518060400160405280600a81526020017f476174654b6565706572000000000000000000000000000000000000000000008152506040518060400160405280600781526020017f4c6963656e736500000000000000000000000000000000000000000000000000815250816000908051906020019062000096929190620000e5565b508060019080519060200190620000af929190620000e5565b505050620000c96008620000cf60201b620011e91760201c565b620001fa565b6001816000016000828254019250508190555050565b828054620000f39062000195565b90600052602060002090601f01602090048101928262000117576000855562000163565b82601f106200013257805160ff191683800117855562000163565b8280016001018555821562000163579182015b828111156200016257825182559160200191906001019062000145565b5b50905062000172919062000176565b5090565b5b808211156200019157600081600090555060010162000177565b5090565b60006002820490506001821680620001ae57607f821691505b60208210811415620001c557620001c4620001cb565b5b50919050565b7f4e487b7100000000000000000000000000000000000000000000000000000000600052602260045260246000fd5b613269806200020a6000396000f3fe608060405234801561001057600080fd5b506004361061010b5760003560e01c80636352211e116100a257806398da4c951161007157806398da4c95146102ca578063a22cb465146102fc578063b88d4fde14610318578063c87b56dd14610334578063e985e9c5146103645761010b565b80636352211e1461021c57806370a082311461024c578063775bb50e1461027c57806395d89b41146102ac5761010b565b806323b872dd116100de57806323b872dd146101aa57806331c91735146101c657806334c08a2e146101e457806342842e0e146102005761010b565b806301ffc9a71461011057806306fdde0314610140578063081812fc1461015e578063095ea7b31461018e575b600080fd5b61012a600480360381019061012591906122fb565b610394565b6040516101379190612869565b60405180910390f35b610148610476565b6040516101559190612884565b60405180910390f35b610178600480360381019061017391906123e4565b610508565b60405161018591906127a2565b60405180910390f35b6101a860048036038101906101a391906122bf565b61054e565b005b6101c460048036038101906101bf91906121b9565b610666565b005b6101ce6106c6565b6040516101db9190612847565b60405180910390f35b6101fe60048036038101906101f9919061234d565b610af2565b005b61021a600480360381019061021591906121b9565b610c66565b005b610236600480360381019061023191906123e4565b610c86565b60405161024391906127a2565b60405180910390f35b61026660048036038101906102619190612154565b610d38565b6040516102739190612a97565b60405180910390f35b610296600480360381019061029191906122bf565b610df0565b6040516102a39190612a97565b60405180910390f35b6102b4610e21565b6040516102c19190612884565b60405180910390f35b6102e460048036038101906102df91906123e4565b610eb3565b6040516102f3939291906128a6565b60405180910390f35b61031660048036038101906103119190612283565b611075565b005b610332600480360381019061032d9190612208565b61108b565b005b61034e600480360381019061034991906123e4565b6110ed565b60405161035b9190612884565b60405180910390f35b61037e6004803603810190610379919061217d565b611155565b60405161038b9190612869565b60405180910390f35b60007f80ac58cd000000000000000000000000000000000000000000000000000000007bffffffffffffffffffffffffffffffffffffffffffffffffffffffff1916827bffffffffffffffffffffffffffffffffffffffffffffffffffffffff1916148061045f57507f5b5e139f000000000000000000000000000000000000000000000000000000007bffffffffffffffffffffffffffffffffffffffffffffffffffffffff1916827bffffffffffffffffffffffffffffffffffffffffffffffffffffffff1916145b8061046f575061046e826111ff565b5b9050919050565b60606000805461048590612d37565b80601f01602080910402602001604051908101604052809291908181526020018280546104b190612d37565b80156104fe5780601f106104d3576101008083540402835291602001916104fe565b820191906000526020600020905b8154815290600101906020018083116104e157829003601f168201915b5050505050905090565b600061051382611269565b6004600083815260200190815260200160002060009054906101000a900473ffffffffffffffffffffffffffffffffffffffff169050919050565b600061055982610c86565b90508073ffffffffffffffffffffffffffffffffffffffff168373ffffffffffffffffffffffffffffffffffffffff1614156105ca576040517f08c379a00000000000000000000000000000000000000000000000000000000081526004016105c190612a57565b60405180910390fd5b8073ffffffffffffffffffffffffffffffffffffffff166105e96112b4565b73ffffffffffffffffffffffffffffffffffffffff1614806106185750610617816106126112b4565b611155565b5b610657576040517f08c379a000000000000000000000000000000000000000000000000000000000815260040161064e906129f7565b60405180910390fd5b61066183836112bc565b505050565b6106776106716112b4565b82611375565b6106b6576040517f08c379a00000000000000000000000000000000000000000000000000000000081526004016106ad90612a77565b60405180910390fd5b6106c183838361140a565b505050565b60606000600760003373ffffffffffffffffffffffffffffffffffffffff1673ffffffffffffffffffffffffffffffffffffffff16815260200190815260200160002080548060200260200160405190810160405280929190818152602001828054801561075357602002820191906000526020600020905b81548152602001906001019080831161073f575b50505050509050600081511115610a6b576000815167ffffffffffffffff8111156107a7577f4e487b7100000000000000000000000000000000000000000000000000000000600052604160045260246000fd5b6040519080825280602002602001820160405280156107e057816020015b6107cd611f57565b8152602001906001900390816107c55790505b50905060005b8251811015610a6057600083828151811061082a577f4e487b7100000000000000000000000000000000000000000000000000000000600052603260045260246000fd5b602002602001015190506006600082815260200190815260200160002060405180606001604052908160008201805461086290612d37565b80601f016020809104026020016040519081016040528092919081815260200182805461088e90612d37565b80156108db5780601f106108b0576101008083540402835291602001916108db565b820191906000526020600020905b8154815290600101906020018083116108be57829003601f168201915b505050505081526020016001820180546108f490612d37565b80601f016020809104026020016040519081016040528092919081815260200182805461092090612d37565b801561096d5780601f106109425761010080835404028352916020019161096d565b820191906000526020600020905b81548152906001019060200180831161095057829003601f168201915b5050505050815260200160028201805461098690612d37565b80601f01602080910402602001604051908101604052809291908181526020018280546109b290612d37565b80156109ff5780601f106109d4576101008083540402835291602001916109ff565b820191906000526020600020905b8154815290600101906020018083116109e257829003601f168201915b505050505081525050838381518110610a41577f4e487b7100000000000000000000000000000000000000000000000000000000600052603260045260246000fd5b6020026020010181905250508080610a5890612d9a565b9150506107e6565b508092505050610aef565b60008067ffffffffffffffff811115610aad577f4e487b7100000000000000000000000000000000000000000000000000000000600052604160045260246000fd5b604051908082528060200260200182016040528015610ae657816020015b610ad3611f57565b815260200190600190039081610acb5790505b50905080925050505b90565b6000610afe6008611671565b9050610b0a338261167f565b604051806060016040528085815260200184815260200183815250600660008381526020019081526020016000206000820151816000019080519060200190610b54929190611f78565b506020820151816001019080519060200190610b71929190611f78565b506040820151816002019080519060200190610b8e929190611f78565b50905050610bb560405180606001604052806029815260200161320b60299139828661169d565b600760003373ffffffffffffffffffffffffffffffffffffffff1673ffffffffffffffffffffffffffffffffffffffff168152602001908152602001600020819080600181540180825580915050600190039060005260206000200160009091909190915055610c2560086111e9565b7fa39f3c4b27288510d97b00a0ec9e2a78721796147af0e1c075f58579e995c748338286604051610c5893929190612809565b60405180910390a150505050565b610c818383836040518060200160405280600081525061108b565b505050565b6000806002600084815260200190815260200160002060009054906101000a900473ffffffffffffffffffffffffffffffffffffffff169050600073ffffffffffffffffffffffffffffffffffffffff168173ffffffffffffffffffffffffffffffffffffffff161415610d2f576040517f08c379a0000000000000000000000000000000000000000000000000000000008152600401610d2690612a37565b60405180910390fd5b80915050919050565b60008073ffffffffffffffffffffffffffffffffffffffff168273ffffffffffffffffffffffffffffffffffffffff161415610da9576040517f08c379a0000000000000000000000000000000000000000000000000000000008152600401610da0906129d7565b60405180910390fd5b600360008373ffffffffffffffffffffffffffffffffffffffff1673ffffffffffffffffffffffffffffffffffffffff168152602001908152602001600020549050919050565b60076020528160005260406000208181548110610e0c57600080fd5b90600052602060002001600091509150505481565b606060018054610e3090612d37565b80601f0160208091040260200160405190810160405280929190818152602001828054610e5c90612d37565b8015610ea95780601f10610e7e57610100808354040283529160200191610ea9565b820191906000526020600020905b815481529060010190602001808311610e8c57829003601f168201915b5050505050905090565b6006602052806000526040600020600091509050806000018054610ed690612d37565b80601f0160208091040260200160405190810160405280929190818152602001828054610f0290612d37565b8015610f4f5780601f10610f2457610100808354040283529160200191610f4f565b820191906000526020600020905b815481529060010190602001808311610f3257829003601f168201915b505050505090806001018054610f6490612d37565b80601f0160208091040260200160405190810160405280929190818152602001828054610f9090612d37565b8015610fdd5780601f10610fb257610100808354040283529160200191610fdd565b820191906000526020600020905b815481529060010190602001808311610fc057829003601f168201915b505050505090806002018054610ff290612d37565b80601f016020809104026020016040519081016040528092919081815260200182805461101e90612d37565b801561106b5780601f106110405761010080835404028352916020019161106b565b820191906000526020600020905b81548152906001019060200180831161104e57829003601f168201915b5050505050905083565b6110876110806112b4565b838361173c565b5050565b61109c6110966112b4565b83611375565b6110db576040517f08c379a00000000000000000000000000000000000000000000000000000000081526004016110d290612a77565b60405180910390fd5b6110e7848484846118a9565b50505050565b60606110f882611269565b6000611102611905565b90506000815111611122576040518060200160405280600081525061114d565b8061112c8461191c565b60405160200161113d92919061277e565b6040516020818303038152906040525b915050919050565b6000600560008473ffffffffffffffffffffffffffffffffffffffff1673ffffffffffffffffffffffffffffffffffffffff16815260200190815260200160002060008373ffffffffffffffffffffffffffffffffffffffff1673ffffffffffffffffffffffffffffffffffffffff16815260200190815260200160002060009054906101000a900460ff16905092915050565b6001816000016000828254019250508190555050565b60007f01ffc9a7000000000000000000000000000000000000000000000000000000007bffffffffffffffffffffffffffffffffffffffffffffffffffffffff1916827bffffffffffffffffffffffffffffffffffffffffffffffffffffffff1916149050919050565b61127281611ac9565b6112b1576040517f08c379a00000000000000000000000000000000000000000000000000000000081526004016112a890612a37565b60405180910390fd5b50565b600033905090565b816004600083815260200190815260200160002060006101000a81548173ffffffffffffffffffffffffffffffffffffffff021916908373ffffffffffffffffffffffffffffffffffffffff160217905550808273ffffffffffffffffffffffffffffffffffffffff1661132f83610c86565b73ffffffffffffffffffffffffffffffffffffffff167f8c5be1e5ebec7d5bd14f71427d1e84f3dd0314c0f7b2291e5b200ac8c7c3b92560405160405180910390a45050565b60008061138183610c86565b90508073ffffffffffffffffffffffffffffffffffffffff168473ffffffffffffffffffffffffffffffffffffffff1614806113c357506113c28185611155565b5b8061140157508373ffffffffffffffffffffffffffffffffffffffff166113e984610508565b73ffffffffffffffffffffffffffffffffffffffff16145b91505092915050565b8273ffffffffffffffffffffffffffffffffffffffff1661142a82610c86565b73ffffffffffffffffffffffffffffffffffffffff1614611480576040517f08c379a000000000000000000000000000000000000000000000000000000000815260040161147790612957565b60405180910390fd5b600073ffffffffffffffffffffffffffffffffffffffff168273ffffffffffffffffffffffffffffffffffffffff1614156114f0576040517f08c379a00000000000000000000000000000000000000000000000000000000081526004016114e790612997565b60405180910390fd5b6114fb838383611b35565b6115066000826112bc565b6001600360008573ffffffffffffffffffffffffffffffffffffffff1673ffffffffffffffffffffffffffffffffffffffff16815260200190815260200160002060008282546115569190612c4d565b925050819055506001600360008473ffffffffffffffffffffffffffffffffffffffff1673ffffffffffffffffffffffffffffffffffffffff16815260200190815260200160002060008282546115ad9190612bc6565b92505081905550816002600083815260200190815260200160002060006101000a81548173ffffffffffffffffffffffffffffffffffffffff021916908373ffffffffffffffffffffffffffffffffffffffff160217905550808273ffffffffffffffffffffffffffffffffffffffff168473ffffffffffffffffffffffffffffffffffffffff167fddf252ad1be2c89b69c2b068fc378daa952ba7f163c4a11628f55a4df523b3ef60405160405180910390a461166c838383611b3a565b505050565b600081600001549050919050565b611699828260405180602001604052806000815250611b3f565b5050565b6117378383836040516024016116b5939291906128f2565b6040516020818303038152906040527fa3f5c739000000000000000000000000000000000000000000000000000000007bffffffffffffffffffffffffffffffffffffffffffffffffffffffff19166020820180517bffffffffffffffffffffffffffffffffffffffffffffffffffffffff8381831617835250505050611b9a565b505050565b8173ffffffffffffffffffffffffffffffffffffffff168373ffffffffffffffffffffffffffffffffffffffff1614156117ab576040517f08c379a00000000000000000000000000000000000000000000000000000000081526004016117a2906129b7565b60405180910390fd5b80600560008573ffffffffffffffffffffffffffffffffffffffff1673ffffffffffffffffffffffffffffffffffffffff16815260200190815260200160002060008473ffffffffffffffffffffffffffffffffffffffff1673ffffffffffffffffffffffffffffffffffffffff16815260200190815260200160002060006101000a81548160ff0219169083151502179055508173ffffffffffffffffffffffffffffffffffffffff168373ffffffffffffffffffffffffffffffffffffffff167f17307eab39ab6107e8899845ad3d59bd9653f200f220920489ca2b5937696c318360405161189c9190612869565b60405180910390a3505050565b6118b484848461140a565b6118c084848484611bc3565b6118ff576040517f08c379a00000000000000000000000000000000000000000000000000000000081526004016118f690612937565b60405180910390fd5b50505050565b606060405180602001604052806000815250905090565b60606000821415611964576040518060400160405280600181526020017f30000000000000000000000000000000000000000000000000000000000000008152509050611ac4565b600082905060005b6000821461199657808061197f90612d9a565b915050600a8261198f9190612c1c565b915061196c565b60008167ffffffffffffffff8111156119d8577f4e487b7100000000000000000000000000000000000000000000000000000000600052604160045260246000fd5b6040519080825280601f01601f191660200182016040528015611a0a5781602001600182028036833780820191505090505b5090505b60008514611abd57600182611a239190612c4d565b9150600a85611a329190612de3565b6030611a3e9190612bc6565b60f81b818381518110611a7a577f4e487b7100000000000000000000000000000000000000000000000000000000600052603260045260246000fd5b60200101907effffffffffffffffffffffffffffffffffffffffffffffffffffffffffffff1916908160001a905350600a85611ab69190612c1c565b9450611a0e565b8093505050505b919050565b60008073ffffffffffffffffffffffffffffffffffffffff166002600084815260200190815260200160002060009054906101000a900473ffffffffffffffffffffffffffffffffffffffff1673ffffffffffffffffffffffffffffffffffffffff1614159050919050565b505050565b505050565b611b498383611d5a565b611b566000848484611bc3565b611b95576040517f08c379a0000000000000000000000000000000000000000000000000000000008152600401611b8c90612937565b60405180910390fd5b505050565b60008151905060006a636f6e736f6c652e6c6f679050602083016000808483855afa5050505050565b6000611be48473ffffffffffffffffffffffffffffffffffffffff16611f34565b15611d4d578373ffffffffffffffffffffffffffffffffffffffff1663150b7a02611c0d6112b4565b8786866040518563ffffffff1660e01b8152600401611c2f94939291906127bd565b602060405180830381600087803b158015611c4957600080fd5b505af1925050508015611c7a57506040513d601f19601f82011682018060405250810190611c779190612324565b60015b611cfd573d8060008114611caa576040519150601f19603f3d011682016040523d82523d6000602084013e611caf565b606091505b50600081511415611cf5576040517f08c379a0000000000000000000000000000000000000000000000000000000008152600401611cec90612937565b60405180910390fd5b805181602001fd5b63150b7a0260e01b7bffffffffffffffffffffffffffffffffffffffffffffffffffffffff1916817bffffffffffffffffffffffffffffffffffffffffffffffffffffffff191614915050611d52565b600190505b949350505050565b600073ffffffffffffffffffffffffffffffffffffffff168273ffffffffffffffffffffffffffffffffffffffff161415611dca576040517f08c379a0000000000000000000000000000000000000000000000000000000008152600401611dc190612a17565b60405180910390fd5b611dd381611ac9565b15611e13576040517f08c379a0000000000000000000000000000000000000000000000000000000008152600401611e0a90612977565b60405180910390fd5b611e1f60008383611b35565b6001600360008473ffffffffffffffffffffffffffffffffffffffff1673ffffffffffffffffffffffffffffffffffffffff1681526020019081526020016000206000828254611e6f9190612bc6565b92505081905550816002600083815260200190815260200160002060006101000a81548173ffffffffffffffffffffffffffffffffffffffff021916908373ffffffffffffffffffffffffffffffffffffffff160217905550808273ffffffffffffffffffffffffffffffffffffffff16600073ffffffffffffffffffffffffffffffffffffffff167fddf252ad1be2c89b69c2b068fc378daa952ba7f163c4a11628f55a4df523b3ef60405160405180910390a4611f3060008383611b3a565b5050565b6000808273ffffffffffffffffffffffffffffffffffffffff163b119050919050565b60405180606001604052806060815260200160608152602001606081525090565b828054611f8490612d37565b90600052602060002090601f016020900481019282611fa65760008555611fed565b82601f10611fbf57805160ff1916838001178555611fed565b82800160010185558215611fed579182015b82811115611fec578251825591602001919060010190611fd1565b5b509050611ffa9190611ffe565b5090565b5b80821115612017576000816000905550600101611fff565b5090565b600061202e61202984612ad7565b612ab2565b90508281526020810184848401111561204657600080fd5b612051848285612cf5565b509392505050565b600061206c61206784612b08565b612ab2565b90508281526020810184848401111561208457600080fd5b61208f848285612cf5565b509392505050565b6000813590506120a6816131ae565b92915050565b6000813590506120bb816131c5565b92915050565b6000813590506120d0816131dc565b92915050565b6000815190506120e5816131dc565b92915050565b600082601f8301126120fc57600080fd5b813561210c84826020860161201b565b91505092915050565b600082601f83011261212657600080fd5b8135612136848260208601612059565b91505092915050565b60008135905061214e816131f3565b92915050565b60006020828403121561216657600080fd5b600061217484828501612097565b91505092915050565b6000806040838503121561219057600080fd5b600061219e85828601612097565b92505060206121af85828601612097565b9150509250929050565b6000806000606084860312156121ce57600080fd5b60006121dc86828701612097565b93505060206121ed86828701612097565b92505060406121fe8682870161213f565b9150509250925092565b6000806000806080858703121561221e57600080fd5b600061222c87828801612097565b945050602061223d87828801612097565b935050604061224e8782880161213f565b925050606085013567ffffffffffffffff81111561226b57600080fd5b612277878288016120eb565b91505092959194509250565b6000806040838503121561229657600080fd5b60006122a485828601612097565b92505060206122b5858286016120ac565b9150509250929050565b600080604083850312156122d257600080fd5b60006122e085828601612097565b92505060206122f18582860161213f565b9150509250929050565b60006020828403121561230d57600080fd5b600061231b848285016120c1565b91505092915050565b60006020828403121561233657600080fd5b6000612344848285016120d6565b91505092915050565b60008060006060848603121561236257600080fd5b600084013567ffffffffffffffff81111561237c57600080fd5b61238886828701612115565b935050602084013567ffffffffffffffff8111156123a557600080fd5b6123b186828701612115565b925050604084013567ffffffffffffffff8111156123ce57600080fd5b6123da86828701612115565b9150509250925092565b6000602082840312156123f657600080fd5b60006124048482850161213f565b91505092915050565b60006124198383612711565b905092915050565b61242a81612c81565b82525050565b600061243b82612b49565b6124458185612b77565b93508360208202850161245785612b39565b8060005b858110156124935784840389528151612474858261240d565b945061247f83612b6a565b925060208a0199505060018101905061245b565b50829750879550505050505092915050565b6124ae81612c93565b82525050565b60006124bf82612b54565b6124c98185612b88565b93506124d9818560208601612d04565b6124e281612ed0565b840191505092915050565b60006124f882612b5f565b6125028185612b99565b9350612512818560208601612d04565b61251b81612ed0565b840191505092915050565b600061253182612b5f565b61253b8185612baa565b935061254b818560208601612d04565b61255481612ed0565b840191505092915050565b600061256a82612b5f565b6125748185612bbb565b9350612584818560208601612d04565b80840191505092915050565b600061259d603283612baa565b91506125a882612ee1565b604082019050919050565b60006125c0602583612baa565b91506125cb82612f30565b604082019050919050565b60006125e3601c83612baa565b91506125ee82612f7f565b602082019050919050565b6000612606602483612baa565b915061261182612fa8565b604082019050919050565b6000612629601983612baa565b915061263482612ff7565b602082019050919050565b600061264c602983612baa565b915061265782613020565b604082019050919050565b600061266f603e83612baa565b915061267a8261306f565b604082019050919050565b6000612692602083612baa565b915061269d826130be565b602082019050919050565b60006126b5601883612baa565b91506126c0826130e7565b602082019050919050565b60006126d8602183612baa565b91506126e382613110565b604082019050919050565b60006126fb602e83612baa565b91506127068261315f565b604082019050919050565b6000606083016000830151848203600086015261272e82826124ed565b9150506020830151848203602086015261274882826124ed565b9150506040830151848203604086015261276282826124ed565b9150508091505092915050565b61277881612ceb565b82525050565b600061278a828561255f565b9150612796828461255f565b91508190509392505050565b60006020820190506127b76000830184612421565b92915050565b60006080820190506127d26000830187612421565b6127df6020830186612421565b6127ec604083018561276f565b81810360608301526127fe81846124b4565b905095945050505050565b600060608201905061281e6000830186612421565b61282b602083018561276f565b818103604083015261283d8184612526565b9050949350505050565b600060208201905081810360008301526128618184612430565b905092915050565b600060208201905061287e60008301846124a5565b92915050565b6000602082019050818103600083015261289e8184612526565b905092915050565b600060608201905081810360008301526128c08186612526565b905081810360208301526128d48185612526565b905081810360408301526128e88184612526565b9050949350505050565b6000606082019050818103600083015261290c8186612526565b905061291b602083018561276f565b818103604083015261292d8184612526565b9050949350505050565b6000602082019050818103600083015261295081612590565b9050919050565b60006020820190508181036000830152612970816125b3565b9050919050565b60006020820190508181036000830152612990816125d6565b9050919050565b600060208201905081810360008301526129b0816125f9565b9050919050565b600060208201905081810360008301526129d08161261c565b9050919050565b600060208201905081810360008301526129f08161263f565b9050919050565b60006020820190508181036000830152612a1081612662565b9050919050565b60006020820190508181036000830152612a3081612685565b9050919050565b60006020820190508181036000830152612a50816126a8565b9050919050565b60006020820190508181036000830152612a70816126cb565b9050919050565b60006020820190508181036000830152612a90816126ee565b9050919050565b6000602082019050612aac600083018461276f565b92915050565b6000612abc612acd565b9050612ac88282612d69565b919050565b6000604051905090565b600067ffffffffffffffff821115612af257612af1612ea1565b5b612afb82612ed0565b9050602081019050919050565b600067ffffffffffffffff821115612b2357612b22612ea1565b5b612b2c82612ed0565b9050602081019050919050565b6000819050602082019050919050565b600081519050919050565b600081519050919050565b600081519050919050565b6000602082019050919050565b600082825260208201905092915050565b600082825260208201905092915050565b600082825260208201905092915050565b600082825260208201905092915050565b600081905092915050565b6000612bd182612ceb565b9150612bdc83612ceb565b9250827fffffffffffffffffffffffffffffffffffffffffffffffffffffffffffffffff03821115612c1157612c10612e14565b5b828201905092915050565b6000612c2782612ceb565b9150612c3283612ceb565b925082612c4257612c41612e43565b5b828204905092915050565b6000612c5882612ceb565b9150612c6383612ceb565b925082821015612c7657612c75612e14565b5b828203905092915050565b6000612c8c82612ccb565b9050919050565b60008115159050919050565b60007fffffffff0000000000000000000000000000000000000000000000000000000082169050919050565b600073ffffffffffffffffffffffffffffffffffffffff82169050919050565b6000819050919050565b82818337600083830152505050565b60005b83811015612d22578082015181840152602081019050612d07565b83811115612d31576000848401525b50505050565b60006002820490506001821680612d4f57607f821691505b60208210811415612d6357612d62612e72565b5b50919050565b612d7282612ed0565b810181811067ffffffffffffffff82111715612d9157612d90612ea1565b5b80604052505050565b6000612da582612ceb565b91507fffffffffffffffffffffffffffffffffffffffffffffffffffffffffffffffff821415612dd857612dd7612e14565b5b600182019050919050565b6000612dee82612ceb565b9150612df983612ceb565b925082612e0957612e08612e43565b5b828206905092915050565b7f4e487b7100000000000000000000000000000000000000000000000000000000600052601160045260246000fd5b7f4e487b7100000000000000000000000000000000000000000000000000000000600052601260045260246000fd5b7f4e487b7100000000000000000000000000000000000000000000000000000000600052602260045260246000fd5b7f4e487b7100000000000000000000000000000000000000000000000000000000600052604160045260246000fd5b6000601f19601f8301169050919050565b7f4552433732313a207472616e7366657220746f206e6f6e20455243373231526560008201527f63656976657220696d706c656d656e7465720000000000000000000000000000602082015250565b7f4552433732313a207472616e736665722066726f6d20696e636f72726563742060008201527f6f776e6572000000000000000000000000000000000000000000000000000000602082015250565b7f4552433732313a20746f6b656e20616c7265616479206d696e74656400000000600082015250565b7f4552433732313a207472616e7366657220746f20746865207a65726f2061646460008201527f7265737300000000000000000000000000000000000000000000000000000000602082015250565b7f4552433732313a20617070726f766520746f2063616c6c657200000000000000600082015250565b7f4552433732313a2061646472657373207a65726f206973206e6f74206120766160008201527f6c6964206f776e65720000000000000000000000000000000000000000000000602082015250565b7f4552433732313a20617070726f76652063616c6c6572206973206e6f7420746f60008201527f6b656e206f776e6572206e6f7220617070726f76656420666f7220616c6c0000602082015250565b7f4552433732313a206d696e7420746f20746865207a65726f2061646472657373600082015250565b7f4552433732313a20696e76616c696420746f6b656e2049440000000000000000600082015250565b7f4552433732313a20617070726f76616c20746f2063757272656e74206f776e6560008201527f7200000000000000000000000000000000000000000000000000000000000000602082015250565b7f4552433732313a2063616c6c6572206973206e6f7420746f6b656e206f776e6560008201527f72206e6f7220617070726f766564000000000000000000000000000000000000602082015250565b6131b781612c81565b81146131c257600080fd5b50565b6131ce81612c93565b81146131d957600080fd5b50565b6131e581612c9f565b81146131f057600080fd5b50565b6131fc81612ceb565b811461320757600080fd5b5056fe4d696e746564204e465420772f20746f6b656e496420257320616e642070726f647563744944202573a2646970667358221220934abbc896883924ed1adb0d667e8f6d19cf0b952979c655777fbd062a06b31764736f6c63430008040033",
  "linkReferences": {},
  "deployedLinkReferences": {}
}